:1000000072C00000A0C000009EC000009CC00000A4
:100010009AC0000098C0000096C0000094C0000084
:1000200092C0000090C000008EC000008CC0000094
:100030008AC0000088C0000086C0000084C00000A4
:1000400082C0000080C000007EC000007CC00000B4
:100050007AC0000078C0000076C000000C948C08C4
:1000600072C000000C945008F2C700006CC0000081
:100070006AC0000068C0000066C0000064C00000E4
:1000800062C0000060C000005EC000005CC00000F4
:100090005AC0000058C0000056C0000054C0000004
:1000A00052C0000050C000004EC000004CC0000014
:1000B0004AC0000048C0000046C0000044C0000024
:1000C00042C0000040C000003EC000003CC0000034
:1000D0003AC0000038C0000036C0000034C0000044
:1000E00032C00000E70811241FBECFEFD1E2DEBF0F
:1000F000CDBF00E00CBF12E0A0E0B2E0EAE7F2E121
:1001000000E00BBF02C007900D92A63CB107D9F7E3
:1001100023E0A6ECB2E001C01D92AB37B207E1F7D5
:1001200010E0C3E7D0E000E006C021970109802F6E
:10013000FE010E943309C237D10780E00807A9F702
:1001400082D70C943B095CCF0895DC01ED91FC91C2
:100150000190F081E02D19950895CF92DF92EF92F2
:10016000FF920F931F93CF93DF938C01DB01D0E0BD
:10017000C0E07A0181E0E81AF108452BA1F0F8010E
:1001800080819181FC01208131816D01FFEFCF1AC7
:10019000DF0A6C91C801F9011995892B21F021968C
:1001A000A701D601E6CFCE01DF91CF911F910F912C
:1001B000FF90EF90DF90CF90089508956FEF7FEF5D
:1001C00081E090E001C00895019709F008956F3F24
:1001D0007F4FE1F7EEEDF2E01382128288EE93E0BA
:1001E000A0E0B0E084839583A683B78384E092E0A7
:1001F0009183808385EC90E09587848784EC90E000
:100200009787868780EC90E0918B808B81EC90E0E3
:10021000938B828B82EC90E0958B848B86EC90E0C4
:10022000978B868B118E128E138E148ECFCFFC017E
:10023000938D848D981720F4891B990B019708954D
:100240002FE330E0291B3109820F932F911D089570
:10025000FC01918D828D981761F0A28DAE0FBF2F9A
:10026000B11D5D968C91928D9F5F9F73928F90E0F0
:1002700008958FEF9FEF0895FC01918D828D98175F
:1002800031F0828DE80FF11D858D90E008958FEF9C
:100290009FEF0895FC01218D30E0205C3F4F828D5F
:1002A000A901481B5109CA018F73992708958EED42
:1002B00092E0F0DF21E0892B09F420E0822F0895FD
:1002C000CF92DF92EF92FF921F93CF93DF93EC01D7
:1002D0006A017B01122F60E079E08DE390E0A701D5
:1002E00096018BD7215031094109510956954795FF
:1002F00037952795E889F98982E08083C11481EEDA
:10030000D806E104F10421F0211580E1380790F0CE
:10031000E889F989108260E874E88EE190E0A7012D
:1003200096016BD7215031094109510956954795DE
:1003300037952795EC85FD853083EE85FF852083F5
:10034000188EEC89FD891083EA89FB8980818061A0
:100350008083EA89FB89808188608083EA89FB89C0
:10036000808180688083EA89FB8980818F7D80839A
:10037000DF91CF911F91FF90EF90DF90CF90089584
:10038000FC01A48DA80FB92FB11DA35ABF4F2C910A
:10039000848D90E001968F739078848FA689B789B9
:1003A0002C93A089B1898C91837080648C93938DF8
:1003B000848D981308950288F389E02D80818F7DC4
:1003C0008083F8CF0F931F93CF93DF93EC0181E0ED
:1003D000888F9B8D8C8D9817A9F0062F8B8D90E0C0
:1003E00001968F739078182F8C8D81131DC00FB6D6
:1003F00007FCFACFE889F989808185FFF5CFCE0126
:10040000BFDFF2CFE889F989808185FFE6CF9FB70A
:10041000F894EE89FF896083E889F9898081837087
:10042000806480839FBF10C0EB8DEC0FFD2FF11D0A
:10043000E35AFF4F00839FB7F8941B8FEA89FB892B
:100440008081806280839FBF81E090E0DF91CF91C7
:100450001F910F910895CF93DF93EC01888D811147
:1004600004C00DC00FB607FE0DC0EA89FB8980816C
:1004700085FDF8CFA889B9898C9186FFF3CFDF91EC
:10048000CF910895808185FFF0CFE889F989808137
:1004900085FFEBCFCE0174DFE8CF80E090E0892BC1
:1004A00019F005DF811125C080E090E0892B41F033
:1004B00080E090E0892B21F00E94000081111CC097
:1004C00080E090E0892B41F080E090E0892B21F0E2
:1004D0000E940000811113C080E090E0892B41F060
:1004E00080E090E0892B21F00E94000081110AC079
:1004F00008950E940000D8CF0E940000E1CF0E9422
:100500000000EACF0E940000F3CF789484B58260A7
:1005100084BD84B5816084BD85B5826085BD85B5A7
:10052000816085BDEEE6F0E0808181608083E1E856
:10053000F0E010828081826080838081816080838E
:10054000E0E8F0E0808181608083E1EBF0E0808191
:1005500084608083E0EBF0E0808181608083E1E96A
:10056000F0E0808182608083808181608083E0E927
:10057000F0E0808181608083E1EAF0E08081826048
:100580008083808181608083E0EAF0E08081816007
:100590008083E1E2F1E080818260808380818160FC
:1005A0008083E0E2F1E0808181608083EAE7F0E02F
:1005B000808184608083808182608083808181608B
:1005C00080838081806880831092C10008953FB746
:1005D000F8948091DA029091DB02A091DC02B09154
:1005E000DD0226B5A89B05C02F3F19F00196A11D7D
:1005F000B11D3FBFBA2FA92F982F8827BC01CD016D
:10060000620F711D811D911D660F771F881F991F35
:10061000660F771F881F991F08958F929F92AF9240
:10062000BF92CF92DF92EF92FF926B017C01CFDFFE
:100630004B015C011AC021E0C21AD108E108F1089F
:1006400088EE880E83E0981EA11CB11CC114D10451
:10065000E104F10451F0BBDF681979098A099B09AB
:10066000683E73408105910530F7C114D104E1045F
:10067000F10461F7FF90EF90DF90CF90BF90AF90C3
:100680009F908F9008956FEF7FEF81E090E001C021
:100690000895019709F008956F3F7F4FE1F7E6EC69
:1006A000F2E0F387E287F587E4871686F4CFFC0152
:1006B0009685992399F0A285B3859D012F5F3F4FC1
:1006C000338722878C91AF01465F5F4F2417350730
:1006D00010F0F387E2879150968708950284F3859E
:1006E000E02D80810895FC019685992399F0A485D9
:1006F000B5859D0121503109358724878C912E17AE
:100700003F0728F49F01275F3F4F3587248791508B
:10071000968708950484F585E02D80810895FC0175
:10072000828593859F018E179F07A1F0A285B385CF
:100730001197B387A2876C9386858A3081F091E008
:10074000980F968781111DC0828593859587848730
:1007500081E00895CF010A9693878287E7CF848549
:100760009585AC01415051095587448728173907B1
:1007700011F080E00895CF0109969587848780E085
:10078000089581E00895FC018485958501969587FB
:1007900084879F01265F3F4F8217930789F0A485C6
:1007A000B5856C9386858A3071F091E0980F9687B5
:1007B000811117C0848595859387828781E008958C
:1007C000F587E487ECCF82859385019693878287AE
:1007D0002817390711F080E00895F387E28780E059
:1007E000089581E00895FC018685681768F4828584
:1007F00093858E1B9F0B860F911D6AE070E0EAD4F3
:10080000E80FF91F808108950484F585E02D80812B
:10081000089508956115710581F0FB010190002094
:10082000E9F73197AF01461B570BDC01ED91FC91C5
:100830000280F381E02D1995089590E080E00895FD
:10084000DF92EF92FF920F931F93CF93DF93CDB779
:10085000DEB7A1970FB6F894DEBF0FBECDBF7C0107
:10086000CB01BA01D22E19A221E02D1520F48E0160
:100870000F5D1F4F0EC00F2EFAE0DF2EF02DF7CFC9
:10088000E95CD801EE938D01611571058105910533
:1008900071F02D2D30E050E040E0AFD4E62F622F14
:1008A000732F842F952FEA305CF7E05DEACFBD010E
:1008B000C701B0DFA1960FB6F894DEBF0FBECDBF63
:1008C000DF91CF911F910F91FF90EF90DF900895EE
:1008D0002115310549F4DC01ED91FC910190F08185
:1008E000E02D642F19950895ABCF08959A01462FF6
:1008F00050E070E060E0ECCF0895CF92DF92EF928D
:10090000FF920F931F93CF93DF93EC016A017B015A
:100910002115310581F4E881F9810190F081E02D04
:10092000642F1995DF91CF911F910F91FF90EF9058
:10093000DF90CF9008952A303105A9F4FF201CF0F4
:100940002AE07EDFEFCF6DE200DC8C0144275527E3
:10095000BA014C195D096E097F092AE0CE0170DFEA
:10096000800F911FDFCF6CDFDDCF9A01AB01770FD6
:10097000660B770BC2CF089562E172E04BCF08950A
:100980006115710581F0FB0101900020E9F73197B5
:10099000AF01461B570BDC01ED91FC910280F38106
:1009A000E02D1995089590E080E008950F931F932E
:1009B000CF93DF93EC01E4DF8C01CE01DDDF800F0C
:1009C000911FDF91CF911F910F910895CF93DF93E6
:1009D0008091D4028823E9F06BE172E08EED92E021
:1009E000CFDFC0E06091D402262F2150330BC21715
:1009F0001306ACF46C2F86EC92E0F5DE682F8EEDDA
:100A000092E0A3DB6DE172E08EED92E0B9DFCF5FA3
:100A1000E9CF65E172E08EED92E0C8DF2DC0615054
:100A200086EC92E0E0DE682F8EED92E08EDB6FE1E7
:100A300072E08EED92E0A4DFC6ECD2E06E854AE073
:100A400050E08EED92E052DF63E272E08EED92E0D4
:100A500097DF6E858AE0861B680F7727771F4AE04D
:100A600050E08EED92E081DF8E858A3041F063EABE
:100A700072E08EED92E09ADFDF91CF91089565E20A
:100A800072E08EED92E07CDFF2CFCF93DF9326E031
:100A900040E052EC61E070E08EED92E011DC66E344
:100AA00072E08EED92E082DF61E486EC92E06BDE34
:100AB00062E486EC92E067DE63E486EC92E063DE5B
:100AC00064E486EC92E05FDE65E486EC92E05BDE57
:100AD00066E486EC92E057DE67E486EC92E053DE53
:100AE00068E486EC92E04FDE69E486EC92E04BDE4F
:100AF0006AE486EC92E047DE69DF8EED92E03CDF4F
:100B00006AEF70E080E090E088DD66E472E08EEDF0
:100B100092E04CDFC6ECD2E0EA85FB8560818EED89
:100B200092E013DB6EE472E08EED92E029DF4EDF9F
:100B30008EED92E021DF6AEF70E080E090E06DDD05
:100B40006AE572E08EED92E031DFEC85FD85608133
:100B50008EED92E0FADA6EE472E08EED92E010DF54
:100B600035DF8EED92E008DF6AEF70E080E090E024
:100B700054DD61E672E08EED92E018DF68E5CE01AB
:100B8000CEDD882309F44DC26BE272E08EED92E077
:100B9000F7DE6EE472E08EED92E0F2DE17DF8EEDAE
:100BA00092E0EADE6AEF70E080E090E036DD6EE62B
:100BB00072E08EED92E0FADE6AE586EC92E0E3DD2B
:100BC000882309F431C26BE272E08EED92E0D8DE48
:100BD0006EE472E08EED92E0D3DEF8DE8EED92E010
:100BE000CBDE6AEF70E080E090E017DD68E772E04E
:100BF0008EED92E0DBDE86EC92E075DD682F8EED07
:100C000092E0A3DA6EE472E08EED92E0B9DEDEDE11
:100C10008EED92E0B1DE6AEF70E080E090E0FDDC06
:100C200068E772E08EED92E0C1DE86EC92E05BDD7B
:100C3000682F8EED92E089DA6EE472E08EED92E03C
:100C40009FDEC4DE8EED92E097DE6AEF70E080E01A
:100C500090E0E3DC68E772E08EED92E0A7DE86ECE0
:100C600092E041DD682F8EED92E06FDA6EE472E083
:100C70008EED92E085DEAADE8EED92E07DDE6AEFFB
:100C800070E080E090E0C9DC68E772E08EED92E011
:100C90008DDE86EC92E027DD682F8EED92E055DA4E
:100CA0006EE472E08EED92E06BDE90DE8EED92E00F
:100CB00063DE6AEF70E080E090E0AFDC68E772E04E
:100CC0008EED92E073DE86EC92E00DDD682F8EED06
:100CD00092E03BDA6EE472E08EED92E051DE76DE79
:100CE0008EED92E049DE6AEF70E080E090E095DC06
:100CF0006EE772E08EED92E059DE86EC92E0D7DC92
:100D0000682F8EED92E021DA6EE472E08EED92E0D3
:100D100037DE5CDE8EED92E02FDE6AEF70E080E081
:100D200090E07BDC6EE772E08EED92E03FDE86ECD9
:100D300092E0BDDC682F8EED92E007DA6EE472E09F
:100D40008EED92E01DDE42DE8EED92E015DE6AEF62
:100D500070E080E090E061DC6EE772E08EED92E0A2
:100D600025DE86EC92E0A3DC682F8EED92E0EDD9D3
:100D70006EE472E08EED92E003DE28DE8EED92E00E
:100D8000FBDD6AEF70E080E090E047DC6EE772E048
:100D90008EED92E00BDE86EC92E089DC682F8EED22
:100DA00092E0D3D96EE472E08EED92E0E9DD0EDEE2
:100DB0008EED92E0E1DD6AEF70E080E090E02DDC06
:100DC0006EE772E08EED92E0F1DD86EC92E06FDC92
:100DD000682F8EED92E0B9D96EE472E08EED92E06C
:100DE000CFDDF4DD8EED92E0C7DD6AEF70E080E0EC
:100DF00090E013DC6EE672E08EED92E0D7DD6AE5FE
:100E000086EC92E0C0DC882309F411C16BE272E049
:100E10008EED92E0B5DD6EE472E08EED92E0B0DD35
:100E2000D5DD8EED92E0A8DD6AEF70E080E090E025
:100E3000F4DB66E872E08EED92E0B8DD68E586EC02
:100E400092E0A1DC882309F4F5C06BE272E08EED3C
:100E500092E096DD6EE472E08EED92E091DDB6DD1B
:100E60008EED92E089DD6AEF70E080E090E0D5DB06
:100E700060E972E08EED92E099DDE6ECF2E0F58754
:100E8000E487F387E28716866FE472E08EED92E0E6
:100E900077DD9CDD8EED92E06FDD6AEF70E080E043
:100EA00090E0BBDB68E972E08EED92E07FDD61E40B
:100EB00086EC92E034DC882309F4BFC06BE272E078
:100EC0008EED92E05DDD6EE472E08EED92E058DD35
:100ED0007DDD8EED92E050DD6AEF70E080E090E025
:100EE0009CDB6EE672E08EED92E060DD6AE586ECFA
:100EF00092E049DC8111A4C060E372E08EED92E0E3
:100F00003FDD6EE472E08EED92E03ADD5FDD8EED66
:100F100092E032DD6AEF70E080E090E07EDB65EA2F
:100F200072E08EED92E042DD65E086EC92E05BDC03
:100F3000682F8EED92E009D96EE472E08EED92E0BA
:100F40001FDD44DD8EED92E017DD6AEF70E080E09A
:100F500090E063DB6FEA72E08EED92E027DD6FE0F8
:100F600086EC92E040DC682F8EED92E0EED86EE4E5
:100F700072E08EED92E004DD29DD8EED92E0FCDC86
:100F80006AEF70E080E090E048DB60E972E08EEDAF
:100F900092E00CDDE6ECF2E0F587E487F387E28788
:100FA00016866FE472E08EED92E0EADC0FDD8EEDE6
:100FB00092E0E2DC6AEF70E080E090E02EDB6AEB2A
:100FC00072E08EED92E0F2DC86EC92E08CDB682F32
:100FD0008EED92E0BAD86EE472E08EED92E0D0DC55
:100FE000F5DC8EED92E0C8DC6AEF70E080E090E026
:100FF00014DB86EC92E05BDB682F8EED92E0A5D8E7
:101000006EE472E08EED92E0BBDCE0DC8EED92E00F
:10101000B3DC6AEF70E080E090E0FFDADF91CF911F
:10102000089560E372E0B2CD60E372E0CECD60E39C
:1010300072E0EECE60E372E00ACF60E372E040CF90
:101040006BE272E05BCF61DA20DD27DAFECF1F9220
:101050000F920FB60F9211240BB60F922F933F935E
:101060004F935F936F937F938F939F93AF93BF93B0
:10107000EF93FF938EED92E083D9FF91EF91BF91B3
:10108000AF919F918F917F916F915F914F913F9120
:101090002F910F900BBE0F900FBE0F901F901895C1
:1010A0001F920F920FB60F9211240BB60F922F932F
:1010B0008F939F93AF93BF93EF93FF93E091EE02D3
:1010C000F091EF02808182FD14C0EEEDF2E0A6897E
:1010D000B7892C91818D8F5F8F73928D891771F0F5
:1010E000DF01E18DF0E0E252FD4F258F59968C93A0
:1010F00005C0E091F402F091F5028081FF91EF913B
:10110000BF91AF919F918F912F910F900BBE0F9038
:101110000FBE0F901F9018951F920F920FB60F924F
:1011200011240F931F932F933F934F935F936F93CC
:101130007F938F939F93AF93BF930091D6021091AB
:10114000D7022091D8023091D9029091D502B901ED
:10115000A8014F5F5F4F6F4F7F4F83E0890F8D373F
:1011600040F086E8890FB901A8014E5F5F4F6F4FCD
:101170007F4F8093D5024093D6025093D70260935D
:10118000D8027093D9028091DA029091DB02A0918B
:10119000DC02B091DD020196A11DB11D8093DA023F
:1011A0009093DB02A093DC02B093DD02BF91AF917C
:1011B0009F918F917F916F915F914F913F912F916F
:1011C0001F910F910F900FBE0F901F9018950E94C6
:1011D000DE0059CA97FB072E16F4009406D077FD5F
:1011E00008D02DD007FC05D03EF4909581959F4FF7
:1011F0000895709561957F4F0895A1E21A2EAA1B5C
:10120000BB1BFD010DC0AA1FBB1FEE1FFF1FA217B6
:10121000B307E407F50720F0A21BB30BE40BF50BB3
:10122000661F771F881F991F1A9469F7609570953C
:10123000809590959B01AC01BD01CF010895AA1B3B
:10124000BB1B51E107C0AA1FBB1FA617B70710F0B1
:10125000A61BB70B881F991F5A95A9F780959095E3
:10126000BC01CD010895EE0FFF1F881F8BBF0790B3
:0A127000F691E02D1994F894FFCFD9
:10127A0000000000E201AD0017012B024A0128011B
:10128A003C010D0A00656D707479005B002C005DED
:10129A002028002F002066756C6C0074727565003A
:1012AA0066616C73650020232323205245534554FD
:1012BA002023232320006669727374282900206280
:1012CA00756666657220697320006C6173742829DB
:1012DA0000756E7368696674282758272900707527
:1012EA00736828275A272900706F702829007368A5
:1012FA006966742829007075736828275827290099
:10130A00636C656172282900756E73686966742852
:10131A0027412729006275666665725B355D006242
:10132A0075666665725B31355D00435241534820EC
:06133A005445535400006D
:00000001FF
