:1000000072C00000A0C000009EC000009CC00000A4
:100010009AC0000098C0000096C0000094C0000084
:1000200092C0000090C000008EC000008CC0000094
:100030008AC0000088C0000086C0000084C00000A4
:1000400082C0000080C000007EC000007CC00000B4
:100050007AC0000078C0000076C000000C948C08C4
:1000600072C000000C945008F2C700006CC0000081
:100070006AC0000068C0000066C0000064C00000E4
:1000800062C0000060C000005EC000005CC00000F4
:100090005AC0000058C0000056C0000054C0000004
:1000A00052C0000050C000004EC000004CC0000014
:1000B0004AC0000048C0000046C0000044C0000024
:1000C00042C0000040C000003EC000003CC0000034
:1000D0003AC0000038C0000036C0000034C0000044
:1000E00032C00000E70811241FBECFEFD1E2DEBF0F
:1000F000CDBF00E00CBF12E0A0E0B2E0EAE7F2E121
:1001000000E00BBF02C007900D92A63CB107D9F7E3
:1001100023E0A6ECB2E001C01D92AB37B207E1F7D5
:1001200010E0C3E7D0E000E006C021970109802F6E
:10013000FE010E943309C237D10780E00807A9F702
:1001400082D70C943B095CCF0895DC01ED91FC91C2
:100150000190F081E02D19950895CF92DF92EF92F2
:10016000FF920F931F93CF93DF938C01DB01D0E0BD
:10017000C0E07A0181E0E81AF108452BA1F0F8010E
:1001800080819181FC01208131816D01FFEFCF1AC7
:10019000DF0A6C91C801F9011995892B21F021968C
:1001A000A701D601E6CFCE01DF91CF911F910F912C
:1001B000FF90EF90DF90CF90089508956FEF7FEF5D
:1001C00081E090E001C00895019709F008956F3F24
:1001D0007F4FE1F7EEEDF2E01382128288EE93E0BA
:1001E000A0E0B0E084839583A683B78384E092E0A7
:1001F0009183808385EC90E09587848784EC90E000
:100200009787868780EC90E0918B808B81EC90E0E3
:10021000938B828B82EC90E0958B848B86EC90E0C4
:10022000978B868B118E128E138E148ECFCFFC017E
:10023000938D848D981720F4891B990B019708954D
:100240002FE330E0291B3109820F932F911D089570
:10025000FC01918D828D981761F0A28DAE0FBF2F9A
:10026000B11D5D968C91928D9F5F9F73928F90E0F0
:1002700008958FEF9FEF0895FC01918D828D98175F
:1002800031F0828DE80FF11D858D90E008958FEF9C
:100290009FEF0895FC01218D30E0205C3F4F828D5F
:1002A000A901481B5109CA018F73992708958EED42
:1002B00092E0F0DF21E0892B09F420E0822F0895FD
:1002C000CF92DF92EF92FF921F93CF93DF93EC01D7
:1002D0006A017B01122F60E079E08DE390E0A701D5
:1002E00096018BD7215031094109510956954795FF
:1002F00037952795E889F98982E08083C11481EEDA
:10030000D806E104F10421F0211580E1380790F0CE
:10031000E889F989108260E874E88EE190E0A7012D
:1003200096016BD7215031094109510956954795DE
:1003300037952795EC85FD853083EE85FF852083F5
:10034000188EEC89FD891083EA89FB8980818061A0
:100350008083EA89FB89808188608083EA89FB89C0
:10036000808180688083EA89FB8980818F7D80839A
:10037000DF91CF911F91FF90EF90DF90CF90089584
:10038000FC01A48DA80FB92FB11DA35ABF4F2C910A
:10039000848D90E001968F739078848FA689B789B9
:1003A0002C93A089B1898C91837080648C93938DF8
:1003B000848D981308950288F389E02D80818F7DC4
:1003C0008083F8CF0F931F93CF93DF93EC0181E0ED
:1003D000888F9B8D8C8D9817A9F0062F8B8D90E0C0
:1003E00001968F739078182F8C8D81131DC00FB6D6
:1003F00007FCFACFE889F989808185FFF5CFCE0126
:10040000BFDFF2CFE889F989808185FFE6CF9FB70A
:10041000F894EE89FF896083E889F9898081837087
:10042000806480839FBF10C0EB8DEC0FFD2FF11D0A
:10043000E35AFF4F00839FB7F8941B8FEA89FB892B
:100440008081806280839FBF81E090E0DF91CF91C7
:100450001F910F910895CF93DF93EC01888D811147
:1004600004C00DC00FB607FE0DC0EA89FB8980816C
:1004700085FDF8CFA889B9898C9186FFF3CFDF91EC
:10048000CF910895808185FFF0CFE889F989808137
:1004900085FFEBCFCE0174DFE8CF80E090E0892BC1
:1004A00019F005DF811125C080E090E0892B41F033
:1004B00080E090E0892B21F00E94000081111CC097
:1004C00080E090E0892B41F080E090E0892B21F0E2
:1004D0000E940000811113C080E090E0892B41F060
:1004E00080E090E0892B21F00E94000081110AC079
:1004F00008950E940000D8CF0E940000E1CF0E9422
:100500000000EACF0E940000F3CF789484B58260A7
:1005100084BD84B5816084BD85B5826085BD85B5A7
:10052000816085BDEEE6F0E0808181608083E1E856
:10053000F0E010828081826080838081816080838E
:10054000E0E8F0E0808181608083E1EBF0E0808191
:1005500084608083E0EBF0E0808181608083E1E96A
:10056000F0E0808182608083808181608083E0E927
:10057000F0E0808181608083E1EAF0E08081826048
:100580008083808181608083E0EAF0E08081816007
:100590008083E1E2F1E080818260808380818160FC
:1005A0008083E0E2F1E0808181608083EAE7F0E02F
:1005B000808184608083808182608083808181608B
:1005C00080838081806880831092C10008953FB746
:1005D000F8948091DA029091DB02A091DC02B09154
:1005E000DD0226B5A89B05C02F3F19F00196A11D7D
:1005F000B11D3FBFBA2FA92F982F8827BC01CD016D
:10060000620F711D811D911D660F771F881F991F35
:10061000660F771F881F991F08958F929F92AF9240
:10062000BF92CF92DF92EF92FF926B017C01CFDFFE
:100630004B015C011AC021E0C21AD108E108F1089F
:1006400088EE880E83E0981EA11CB11CC114D10451
:10065000E104F10451F0BBDF681979098A099B09AB
:10066000683E73408105910530F7C114D104E1045F
:10067000F10461F7FF90EF90DF90CF90BF90AF90C3
:100680009F908F9008956FEF7FEF81E090E001C021
:100690000895019709F008956F3F7F4FE1F7E6EC69
:1006A000F2E0F387E287F587E4871686F4CFFC0152
:1006B0009685992399F0A285B3859D012F5F3F4FC1
:1006C000338722878C91AF01465F5F4F2417350730
:1006D00010F0F387E2879150968708950284F3859E
:1006E000E02D80810895FC019685992399F0A485D9
:1006F000B5859D0121503109358724878C912E17AE
:100700003F0728F49F01275F3F4F3587248791508B
:10071000968708950484F585E02D80810895FC0175
:10072000828593859F018E179F07A1F0A285B385CF
:100730001197B387A2876C9386858A3081F091E008
:10074000980F968781111DC0828593859587848730
:1007500081E00895CF010A9693878287E7CF848549
:100760009585AC01415051095587448728173907B1
:1007700011F080E00895CF0109969587848780E085
:10078000089581E00895FC018485958501969587FB
:1007900084879F01265F3F4F8217930789F0A485C6
:1007A000B5856C9386858A3071F091E0980F9687B5
:1007B000811117C0848595859387828781E008958C
:1007C000F587E487ECCF82859385019693878287AE
:1007D0002817390711F080E00895F387E28780E059
:1007E000089581E00895FC018685681768F4828584
:1007F00093858E1B9F0B860F911D6AE070E0EAD4F3
:10080000E80FF91F808108950484F585E02D80812B
:10081000089508956115710581F0FB010190002094
:10082000E9F73197AF01461B570BDC01ED91FC91C5
:100830000280F381E02D1995089590E080E00895FD
:10084000DF92EF92FF920F931F93CF93DF93CDB779
:10085000DEB7A1970FB6F894DEBF0FBECDBF7C0107
:10086000CB01BA01D22E19A221E02D1520F48E0160
:100870000F5D1F4F0EC00F2EFAE0DF2EF02DF7CFC9
:10088000E95CD801EE938D01611571058105910533
:1008900071F02D2D30E050E040E0AFD4E62F622F14
:1008A000732F842F952FEA305CF7E05DEACFBD010E
:1008B000C701B0DFA1960FB6F894DEBF0FBECDBF63
:1008C000DF91CF911F910F91FF90EF90DF900895EE
:1008D0002115310549F4DC01ED91FC910190F08185
:1008E000E02D642F19950895ABCF08959A01462FF6
:1008F00050E070E060E0ECCF0895CF92DF92EF928D
:10090000FF920F931F93CF93DF93EC016A017B015A
:100910002115310581F4E881F9810190F081E02D04
:10092000642F1995DF91CF911F910F91FF90EF9058
:10093000DF90CF9008952A303105A9F4FF201CF0F4
:100940002AE07EDFEFCF6DE200DC8C0144275527E3
:10095000BA014C195D096E097F092AE0CE0170DFEA
:10096000800F911FDFCF6CDFDDCF9A01AB01770FD6
:10097000660B770BC2CF089562E172E04BCF08950A
:100980006115710581F0FB0101900020E9F73197B5
:10099000AF01461B570BDC01ED91FC910280F38106
:1009A000E02D1995089590E080E008950F931F932E
:1009B000CF93DF93EC01E4DF8C01CE01DDDF800F0C
:1009C000911FDF91CF911F910F910895CF93DF93E6
:1009D0008091D4028823E9F06BE172E08EED92E021
:1009E000CFDFC0E06091D402262F2150330BC21715
:1009F0001306ACF46C2F86EC92E0F5DE682F8EEDDA
:100A000092E0A3DB6DE172E08EED92E0B9DFCF5FA3
:100A1000E9CF65E172E08EED92E0C8DF2DC0615054
:100A200086EC92E0E0DE682F8EED92E08EDB6FE1E7
:100A300072E08EED92E0A4DFC6ECD2E06E854AE073
:100A400050E08EED92E052DF63E272E08EED92E0D4
:100A500097DF6E858AE0861B680F7727771F4AE04D
:100A600050E08EED92E081DF8E858A3041F063EABE
:100A700072E08EED92E09ADFDF91CF91089565E20A
:100A800072E08EED92E07CDFF2CFCF93DF9326E031
:100A900040E052EC61E070E08EED92E011DC66E344
:100AA00072E08EED92E082DF61E486EC92E06BDE34
:100AB00062E486EC92E067DE63E486EC92E063DE5B
:100AC00064E486EC92E05FDE65E486EC92E05BDE57
:100AD00066E486EC92E057DE67E486EC92E053DE53
:100AE00068E486EC92E04FDE69E486EC92E04BDE4F
:100AF0006AE486EC92E047DE69DF8EED92E03CDF4F
:100B00006AEF70E080E090E088DD66E472E08EEDF0
:100B100092E04CDFC6ECD2E0EA85FB8560818EED89
:100B200092E013DB6EE472E08EED92E029DF4EDF9F
:100B30008EED92E021DF6AEF70E080E090E06DDD05
:100B40006AE572E08EED92E031DFEC85FD85608133
:100B50008EED92E0FADA6EE472E08EED92E010DF54
:100B600035DF8EED92E008DF6AEF70E080E090E024
:100B700054DD61E672E08EED92E018DF68E5CE01AB
:100B8000CEDD882309F44DC26BE272E08EED92E077
:100B9000F7DE6EE472E08EED92E0F2DE17DF8EEDAE
:100BA00092E0EADE6AEF70E080E090E036DD6EE62B
:100BB00072E08EED92E0FADE6AE586EC92E0E3DD2B
:100BC000882309F431C26BE272E08EED92E0D8DE48
:100BD0006EE472E08EED92E0D3DEF8DE8EED92E010
:100BE000CBDE6AEF70E080E090E017DD68E772E04E
:100BF0008EED92E0DBDE86EC92E075DD682F8EED07
:100C000092E0A3DA6EE472E08EED92E0B9DEDEDE11
:100C10008EED92E0B1DE6AEF70E080E090E0FDDC06
:100C200068E772E08EED92E0C1DE86EC92E05BDD7B
:100C3000682F8EED92E089DA6EE472E08EED92E03C
:100C40009FDEC4DE8EED92E097DE6AEF70E080E01A
:100C500090E0E3DC68E772E08EED92E0A7DE86ECE0
:100C600092E041DD682F8EED92E06FDA6EE472E083
:100C70008EED92E085DEAADE8EED92E07DDE6AEFFB
:100C800070E080E090E0C9DC68E772E08EED92E011
:100C90008DDE86EC92E027DD682F8EED92E055DA4E
:100CA0006EE472E08EED92E06BDE90DE8EED92E00F
:100CB00063DE6AEF70E080E090E0AFDC68E772E04E
:100CC0008EED92E073DE86EC92E00DDD682F8EED06
:100CD00092E03BDA6EE472E08EED92E051DE76DE79
:100CE0008EED92E049DE6AEF70E080E090E095DC06
:100CF0006EE772E08EED92E059DE86EC92E0D7DC92
:100D0000682F8EED92E021DA6EE472E08EED92E0D3
:100D100037DE5CDE8EED92E02FDE6AEF70E080E081
:100D200090E07BDC6EE772E08EED92E03FDE86ECD9
:100D300092E0BDDC682F8EED92E007DA6EE472E09F
:100D40008EED92E01DDE42DE8EED92E015DE6AEF62
:100D500070E080E090E061DC6EE772E08EED92E0A2
:100D600025DE86EC92E0A3DC682F8EED92E0EDD9D3
:100D70006EE472E08EED92E003DE28DE8EED92E00E
:100D8000FBDD6AEF70E080E090E047DC6EE772E048
:100D90008EED92E00BDE86EC92E089DC682F8EED22
:100DA00092E0D3D96EE472E08EED92E0E9DD0EDEE2
:100DB0008EED92E0E1DD6AEF70E080E090E02DDC06
:100DC0006EE772E08EED92E0F1DD86EC92E06FDC92
:100DD000682F8EED92E0B9D96EE472E08EED92E06C
:100DE000CFDDF4DD8EED92E0C7DD6AEF70E080E0EC
:100DF00090E013DC6EE672E08EED92E0D7DD6AE5FE
:100E000086EC92E0C0DC882309F411C16BE272E049
:100E10008EED92E0B5DD6EE472E08EED92E0B0DD35
:100E2000D5DD8EED92E0A8DD6AEF70E080E090E025
:100E3000F4DB66E872E08EED92E0B8DD68E586EC02
:100E400092E0A1DC882309F4F5C06BE272E08EED3C
:100E500092E096DD6EE472E08EED92E091DDB6DD1B
:100E60008EED92E089DD6AEF70E080E090E0D5DB06
:100E700060E972E08EED92E099DDE6ECF2E0F58754
:100E8000E487F387E28716866FE472E08EED92E0E6
:100E900077DD9CDD8EED92E06FDD6AEF70E080E043
:100EA00090E0BBDB68E972E08EED92E07FDD61E40B
:100EB00086EC92E034DC882309F4BFC06BE272E078
:100EC0008EED92E05DDD6EE472E08EED92E058DD35
:100ED0007DDD8EED92E050DD6AEF70E080E090E025
:100EE0009CDB6EE672E08EED92E060DD6AE586ECFA
:100EF00092E049DC8111A4C060E372E08EED92E0E3
:100F00003FDD6EE472E08EED92E03ADD5FDD8EED66
:100F100092E032DD6AEF70E080E090E07EDB65EA2F
:100F200072E08EED92E042DD65E086EC92E05BDC03
:100F3000682F8EED92E009D96EE472E08EED92E0BA
:100F40001FDD44DD8EED92E017DD6AEF70E080E09A
:100F500090E063DB6FEA72E08EED92E027DD6FE0F8
:100F600086EC92E040DC682F8EED92E0EED86EE4E5
:100F700072E08EED92E004DD29DD8EED92E0FCDC86
:100F80006AEF70E080E090E048DB60E972E08EEDAF
:100F900092E00CDDE6ECF2E0F587E487F387E28788
:100FA00016866FE472E08EED92E0EADC0FDD8EEDE6
:100FB00092E0E2DC6AEF70E080E090E02EDB6AEB2A
:100FC00072E08EED92E0F2DC86EC92E08CDB682F32
:100FD0008EED92E0BAD86EE472E08EED92E0D0DC55
:100FE000F5DC8EED92E0C8DC6AEF70E080E090E026
:100FF00014DB86EC92E05BDB682F8EED92E0A5D8E7
:101000006EE472E08EED92E0BBDCE0DC8EED92E00F
:10101000B3DC6AEF70E080E090E0FFDADF91CF911F
:10102000089560E372E0B2CD60E372E0CECD60E39C
:1010300072E0EECE60E372E00ACF60E372E040CF90
:101040006BE272E05BCF61DA20DD27DAFECF1F9220
:101050000F920FB60F9211240BB60F922F933F935E
:101060004F935F936F937F938F939F93AF93BF93B0
:10107000EF93FF938EED92E083D9FF91EF91BF91B3
:10108000AF919F918F917F916F915F914F913F9120
:101090002F910F900BBE0F900FBE0F901F901895C1
:1010A0001F920F920FB60F9211240BB60F922F932F
:1010B0008F939F93AF93BF93EF93FF93E091EE02D3
:1010C000F091EF02808182FD14C0EEEDF2E0A6897E
:1010D000B7892C91818D8F5F8F73928D891771F0F5
:1010E000DF01E18DF0E0E252FD4F258F59968C93A0
:1010F00005C0E091F402F091F5028081FF91EF913B
:10110000BF91AF919F918F912F910F900BBE0F9038
:101110000FBE0F901F9018951F920F920FB60F924F
:1011200011240F931F932F933F934F935F936F93CC
:101130007F938F939F93AF93BF930091D6021091AB
:10114000D7022091D8023091D9029091D502B901ED
:10115000A8014F5F5F4F6F4F7F4F83E0890F8D373F
:1011600040F086E8890FB901A8014E5F5F4F6F4FCD
:101170007F4F8093D5024093D6025093D70260935D
:10118000D8027093D9028091DA029091DB02A0918B
:10119000DC02B091DD020196A11DB11D8093DA023F
:1011A0009093DB02A093DC02B093DD02BF91AF917C
:1011B0009F918F917F916F915F914F913F912F916F
:1011C0001F910F910F900FBE0F901F9018950E94C6
:1011D000DE0059CA97FB072E16F4009406D077FD5F
:1011E00008D02DD007FC05D03EF4909581959F4FF7
:1011F0000895709561957F4F0895A1E21A2EAA1B5C
:10120000BB1BFD010DC0AA1FBB1FEE1FFF1FA217B6
:10121000B307E407F50720F0A21BB30BE40BF50BB3
:10122000661F771F881F991F1A9469F7609570953C
:10123000809590959B01AC01BD01CF010895AA1B3B
:10124000BB1B51E107C0AA1FBB1FA617B70710F0B1
:10125000A61BB70B881F991F5A95A9F780959095E3
:10126000BC01CD010895EE0FFF1F881F8BBF0790B3
:0A127000F691E02D1994F894FFCFD9
:10127A0000000000E201AD0017012B024A0128011B
:10128A003C010D0A00656D707479005B002C005DED
:10129A002028002F002066756C6C0074727565003A
:1012AA0066616C73650020232323205245534554FD
:1012BA002023232320006669727374282900206280
:1012CA00756666657220697320006C6173742829DB
:1012DA0000756E7368696674282758272900707527
:1012EA00736828275A272900706F702829007368A5
:1012FA006966742829007075736828275827290099
:10130A00636C656172282900756E73686966742852
:10131A0027412729006275666665725B355D006242
:10132A0075666665725B31355D00435241534820EC
:06133A005445535400006D
:020000023000CC
:10E000000D9489F10D94B2F10D94B2F10D94B2F129
:10E010000D94B2F10D94B2F10D94B2F10D94B2F1F0
:10E020000D94B2F10D94B2F10D94B2F10D94B2F1E0
:10E030000D94B2F10D94B2F10D94B2F10D94B2F1D0
:10E040000D94B2F10D94B2F10D94B2F10D94B2F1C0
:10E050000D94B2F10D94B2F10D94B2F10D94B2F1B0
:10E060000D94B2F10D94B2F10D94B2F10D94B2F1A0
:10E070000D94B2F10D94B2F10D94B2F10D94B2F190
:10E080000D94B2F10D94B2F10D94B2F10D94B2F180
:10E090000D94B2F10D94B2F10D94B2F10D94B2F170
:10E0A0000D94B2F10D94B2F10D94B2F10D94B2F160
:10E0B0000D94B2F10D94B2F10D94B2F10D94B2F150
:10E0C0000D94B2F10D94B2F10D94B2F10D94B2F140
:10E0D0000D94B2F10D94B2F10D94B2F10D94B2F130
:10E0E0000D94B2F141546D656761323536300041AF
:10E0F000726475696E6F206578706C6F72657220DE
:10E1000073746B3530305632206279204D4C530099
:10E11000426F6F746C6F616465723E004875683F52
:10E1200000436F6D70696C6564206F6E203D200048
:10E130004350552054797065202020203D20005FF9
:10E140005F4156525F415243485F5F3D2000415658
:10E1500052204C696243205665723D20004743437C
:10E160002056657273696F6E203D20004350552024
:10E1700049442020202020203D20004C6F7720663D
:10E18000757365202020203D20004869676820665F
:10E190007573652020203D200045787420667573D6
:10E1A00065202020203D20004C6F636B2066757336
:10E1B000652020203D20004D617220203720323024
:10E1C000313300312E362E3800342E332E350056A2
:10E1D00023202020414444522020206F7020636F70
:10E1E00064652020202020696E73747275637469E1
:10E1F0006F6E2061646472202020496E74657272B3
:10E20000757074006E6F20766563746F7200726A49
:10E210006D702020006A6D70200057686174207056
:10E220006F72743A00506F7274206E6F7420737541
:10E2300070706F72746564004D7573742062652030
:10E2400061206C6574746572002000577269747483
:10E25000696E672045450052656164696E672045B7
:10E26000450045452065727220636E743D00504F35
:10E27000525400303D5A65726F2061646472003FF1
:10E280003D43505520737461747300403D454550C3
:10E29000524F4D207465737400423D426C696E6B41
:10E2A000204C454400453D44756D70204545505215
:10E2B0004F4D00463D44756D7020464C415348001B
:10E2C000483D48656C70004C3D4C69737420492F83
:10E2D0004F20506F72747300513D51756974005234
:10E2E0003D44756D702052414D00563D73686F7707
:10E2F00020696E7465727275707420566563746FF0
:10E30000727300593D506F727420626C696E6B00BD
:10E310002A0011241FBECFEFD1E2DEBFCDBF01E046
:10E320000CBF12E0A0E0B2E0EEE1FDEF03E00BBFB6
:10E3300002C007900D92A030B107D9F712E0A0E01B
:10E34000B2E001C01D92AE30B107E1F70F9460F367
:10E350000D948DFE01E20EBF0FEF0DBF11241FBE05
:10E360000D9460F30D9400F020E030E040ED57E0B4
:10E3700005C0FA013197F1F72F5F3F4F2817390792
:10E38000C0F308959C01260F311DC901A0E0B0E043
:10E390002F5F3F4FABBFFC018791882361F08093D3
:10E3A000C6008091C00086FFFCCF8091C0008064D1
:10E3B0008093C000EACF08958DE08093C6008091DD
:10E3C000C00086FFFCCF8091C00080648093C000B5
:10E3D0008AE08093C6008091C00086FFFCCF8091C8
:10E3E000C00080648093C00008950F94C2F10F9420
:10E3F000DCF10895FC019081992359F09093C600B7
:10E400008091C00086FFFCCF8091C0008064809323
:10E41000C0003196992379F70895282F982F929567
:10E420009F70892F805D8A3308F0895F8093C600D2
:10E430008091C00086FFFCCF8091C00080648093F3
:10E44000C000822F8F70982F905D9A3308F0995FEB
:10E450009093C6008091C00086FFFCCF8091C000E1
:10E4600080648093C00008959C01FB01853691056E
:10E470001CF46330710594F0C90164E670E00F94F8
:10E480002EFE605D7F4F6093C6008091C00086FFC6
:10E49000FCCF8091C00080648093C0002B30310598
:10E4A00014F43297B4F0C90164E670E00F942EFEC4
:10E4B0006AE070E00F942EFE605D7F4F6093C600AF
:10E4C0008091C00086FFFCCF8091C0008064809363
:10E4D000C000C9016AE070E00F942EFEC0968093E0
:10E4E000C6008091C00086FFFCCF8091C000806490
:10E4F0008093C00008951F93182F8EE692EE60E07F
:10E500000F94C2F11093C6008091C00086FFFCCF2B
:10E510008091C00080648093C0000F94DCF11F9153
:10E5200008952F923F924F925F926F927F928F92B7
:10E530009F92AF92BF92CF92DF92EF92FF920F9392
:10E540001F93DF93CF93CDB7DEB762970FB6F894E2
:10E55000DEBF0FBECDBF382E622ECA01DB015C01CB
:10E560006D01772420E2222E2E010894411C511CBB
:10E570008BC081E0A81680E0B80681E0C80680E084
:10E58000D80628F0C601AA27BB270F940DF2BB2797
:10E59000AD2D9C2D8B2D0F940DF28A2D0F940DF225
:10E5A0002092C6008091C00086FFFCCF8091C00001
:10E5B00080648093C0009DE29093C6008091C0006B
:10E5C00086FFFCCF8091C00080648093C0002092C1
:10E5D000C6008091C00086FFFCCF8091C00080649F
:10E5E0008093C00019828601750188249924A1E0D6
:10E5F0003A1651F03A1620F0B2E03B1661F409C029
:10E600000BBFF701779007C0C7010F9477FE782EF4
:10E6100002C0F7017080872D0F940DF22092C60082
:10E620008091C00086FFFCCF8091C0008064809301
:10E63000C000872D8052F401EF70F0708F3520F408
:10E64000E40DF51D708204C0E40DF51D8EE280839B
:10E650000894E11CF11C011D111D0894811C911CE2
:10E6600090E18916910409F0C2CF80E190E0A0E02A
:10E67000B0E0A80EB91ECA1EDB1E198AC2010F9493
:10E68000FAF10F94DCF16A94662009F072CF629679
:10E690000FB6F894DEBF0FBECDBFCF91DF911F91B3
:10E6A0000F91FF90EF90DF90CF90BF90AF909F9031
:10E6B0008F907F906F905F904F903F902F90089534
:10E6C0002F923F924F925F926F927F928F929F9282
:10E6D000AF92BF92CF92DF92EF92FF920F931F9370
:10E6E000DF93CF93CDB7DEB7CD53D1400FB6F894BB
:10E6F000DEBF0FBECDBF01E20EBF0FEF0DBF94B75F
:10E70000F894A89514BE80916000886180936000A1
:10E7100010926000789493FF05C0E0910002F091A0
:10E7200001021995279A2F9A8091C00082608093E8
:10E73000C00080E18093C40088E18093C1000000A4
:10E74000EE24FF24870144E0A42EB12CCC24DD2448
:10E7500024C0C5010197F1F70894E11CF11C011DCB
:10E76000111D21E2E2162EE4F20620E0020720E06D
:10E77000120718F031E0C32ED12CC801B70127ECE5
:10E780003BE140E050E00F9441FE611571058105C9
:10E79000910519F485B1805885B98091C00087FD35
:10E7A00003C0C114D104A9F2A6014F5F5F4FC25E3E
:10E7B000DE4F59834883CE51D140C25EDE4F8881FF
:10E7C0009981CE51D140019711F00D9410FEC05D9A
:10E7D000DE4F19821882C053D14060E0C15DDE4F28
:10E7E0001882CF52D14088249924C35DDE4F19820C
:10E7F0001882CD52D140C05EDE4F188219821A8233
:10E800001B82C052D140CE5CDE4F188219821A8220
:10E810001B82C253D140EE24FF2487010BBFF701B6
:10E8200007911691C45CDE4F19830883CC53D14005
:10E830000D940BFEC25EDE4F28813981CE51D1404E
:10E840002130310509F52091C600C25EDE4F1982E4
:10E850001882CE51D14022C02F5F3F4F4F4F5F4FA4
:10E86000213082E138078AE7480780E0580780F0C6
:10E87000C45CDE4FE881F981CC53D140EF5FFF4F9C
:10E8800019F0EE27FF27099420E030E040E050E047
:10E890008091C00087FFE0CF2091C600C35DDE4FAE
:10E8A00048815981CD52D1404F5F5F4FC35DDE4FEC
:10E8B00059834883CD52D140213209F063C64A3092
:10E8C000510508F05FC60894811C911C53E0851621
:10E8D000910409F059C600E010E018C081E280936D
:10E8E000C6008091C00086FFFCCF8091C00080648C
:10E8F0008093C0002F5F3F4F2931310579F70F9486
:10E90000DCF10F5F1F4F0530110519F020E030E0FA
:10E91000E5CF10920A0210920B0210920C02109294
:10E920000D02109206021092070210920802109235
:10E930000902109202021092030210920402109235
:10E9400005028FEE90EE60E00F94F5F180E191EE1C
:10E9500060E00F94C2F18091C00087FFFCCF9091DE
:10E96000C600903608F09F759032B8F09093C600BC
:10E970008091C00086FFFCCF8091C00080648093AE
:10E98000C000A0E2A093C6008091C00086FFFCCF2B
:10E990008091C00080648093C000983409F4D7C18E
:10E9A0009934B8F4923409F459C1933458F490333B
:10E9B00019F1903308F4E3C59F33A1F1903409F0C5
:10E9C000DEC5BDC0953409F470C1963409F0D7C5D1
:10E9D00098C1923509F42BC2933538F49C3409F46C
:10E9E000F5C1913509F0CBC518C2963509F445C279
:10E9F000993509F0C4C567C483E792EE62E00F94CD
:10EA0000F5F110920602109207021092080210927D
:10EA1000090210920A0210920B0210920C0210923C
:10EA20000D0213C18FE792EE62E00F94F5F18FEEC5
:10EA300090EE60E00F94F5F181E291EE60E00F94CA
:10EA4000C2F187EB91EE60E00F94F5F180E391EE77
:10EA500060E00F94C2F184EE90EE60E00F94F5F167
:10EA60008FE391EE60E00F94C2F186E090E061E008
:10EA700070E00F9434F20F94DCF18DE591EE60E0DC
:10EA80000F94C2F189EC91EE60E00F94F5F18EE401
:10EA900091EE60E00F94C2F183EC91EE60E00F9490
:10EAA000F5F18CE691EE60E00F94C2F18EE10F94E7
:10EAB0000DF288E90F940DF281E00F940DF20F949E
:10EAC000DCF18BE791EE60E00F94C2F119E0E0E039
:10EAD000F0E010935700E4918E2F0F940DF20F94F5
:10EAE000DCF18AE891EE60E00F94C2F1E3E0F0E03F
:10EAF00010935700E4918E2F0F940DF20F94DCF1D8
:10EB000089E991EE60E00F94C2F1E2E0F0E0109349
:10EB10005700E4918E2F0F940DF20F94DCF188EAE8
:10EB200091EE60E00F94C2F1E1E0F0E01093570045
:10EB30001491812F0F940DF20F94DCF107CF8BE825
:10EB400092EE62E00F94F5F18BE492EE60E00F94A8
:10EB5000F5F10F94DCF100E010E019C0C8016F2D51
:10EB60000F947FFEFF2031F489E492EE60E00F9471
:10EB7000C2F10BC0F092C6008091C00086FFFCCFAE
:10EB80008091C00080648093C0000F5F1F4FC80158
:10EB900081519F41A0E0B0E0ABBFFC01F790BAE229
:10EBA000FB1621F0E2E000301E07C1F60F94DCF105
:10EBB0000F94DCF187E592EE60E00F94F5F10F948D
:10EBC000DCF1CC24DD2400E010E01EC0C8010F946D
:10EBD00077FEF82E882331F489E492EE60E00F94FA
:10EBE000C2F10BC08093C6008091C00086FFFCCFAD
:10EBF0008091C00080648093C000FE1419F00894D6
:10EC0000C11CD11C0F5F1F4FC80181519F41A0E063
:10EC1000B0E0ABBFFC01E790FAE2EF1621F022E092
:10EC20000030120799F60F94DCF10F94DCF182E6C4
:10EC300092EE60E00F94C2F1C60161E070E00F94C3
:10EC400034F20F94DCF10F94DCF110920202109276
:10EC50000302109204021092050278CE89E992EE26
:10EC600062E00F94F5F1279A2F9A16C02F9880E052
:10EC700090E0E0EDF7E03197F1F7019684369105E9
:10EC8000C1F72F9A80E090E0E0EDF7E03197F1F7DF
:10EC9000019684369105C1F78091C00087FFE6CFC9
:10ECA0008091C00087FFFCCF64C485EA92EE62E0E9
:10ECB0000F94F5F140910202509103026091040219
:10ECC0007091050281E020E10F9491F2809102029F
:10ECD00090910302A0910402B091050280509F4FD1
:10ECE000AF4FBF4F8093020290930302A0930402A0
:10ECF000B093050280509041A040B04008F426CE69
:10ED0000A4CF83EB92EE62E00F94F5F140910602FE
:10ED100050910702609108027091090280E020E1A1
:10ED20000F9491F28091060290910702A09108023F
:10ED3000B091090280509F4FAF4FBF4F80930602A2
:10ED400090930702A0930802B0930902FFCD80ECD4
:10ED500092EE62E00F94F5F183E792EE60E00F949B
:10ED6000F5F18FE792EE60E00F94F5F18BE892EE0B
:10ED700060E00F94F5F189E992EE60E00F94F5F10F
:10ED800085EA92EE60E00F94F5F183EB92EE60E09D
:10ED90000F94F5F180EC92EE60E00F94F5F187ECC2
:10EDA00092EE60E00F94F5F188ED92EE60E00F9442
:10EDB000F5F18FED92EE60E00F94F5F18AEE92EEB0
:10EDC00060E00F94F5F183E093EEBDCD87EC92EE19
:10EDD00062E00F94F5F181E40F947BF282E40F94EA
:10EDE0007BF283E40F947BF284E40F947BF285E45E
:10EDF0000F947BF286E40F947BF287E40F947BF20E
:10EE000088E40F947BF28AE40F947BF28BE40F94F6
:10EE10007BF28CE40F947BF299CD88ED92EE62E068
:10EE20000F94F5F1772473948824992409C48FED05
:10EE300092EE62E00F94F5F140910A0250910B02BC
:10EE400060910C0270910D0282E020E10F9491F22A
:10EE500080910A0290910B02A0910C02B0910D02D8
:10EE600080509F4FAF4FBF4F80930A0290930B0289
:10EE7000A0930C02B0930D0269CD8AEE92EE62E08F
:10EE80000F94F5F184EE90EE60E00F94F5F18FECC5
:10EE900091EE60E00F94F5F1662477244301CC5D98
:10EEA000DE4F19821882C452D140D401C301B695F5
:10EEB000A79597958795CA5DDE4F88839983AA8326
:10EEC000BB83C652D140CC5DDE4FA881B981C4520C
:10EED000D1401196CC5DDE4FB983A883C452D14096
:10EEE000CD0162E070E00F9434F2B0E2B093C6005E
:10EEF0008091C00086FFFCCF8091C0008064809329
:10EF0000C000EDE2E093C6008091C00086FFFCCF18
:10EF10008091C00080648093C000F0E2F093C6004E
:10EF20008091C00086FFFCCF8091C00080648093F8
:10EF3000C000CA5DDE4FE880F9800A811B81C6529D
:10EF4000D140BB27A12F902F8F2D0F940DF2CA5DBA
:10EF5000DE4F8881C652D1400F940DF2B0E2FB2EF5
:10EF6000F092C6008091C00086FFFCCF8091C00067
:10EF700080648093C0000DE30093C6008091C000C0
:10EF800086FFFCCF8091C00080648093C00010E2B7
:10EF90001093C6008091C00086FFFCCF8091C00016
:10EFA00080648093C0008BBEF3012791C65DDE4F65
:10EFB0002883CA52D140A22EBB24CC24DD2408943D
:10EFC000611C711C811C911C8BBEF3018791282E42
:10EFD0003324442455240894611C711C811C911C09
:10EFE0008BBEF3013791C55DDE4F3883CB52D140E4
:10EFF0000894611C711C811C911C8BBEF30147910C
:10F00000C45DDE4F4883CC52D140ADEFEA2EAFEF66
:10F01000FA2EAFEF0A2FAFEF1A2F6E0C7F1C801E57
:10F02000911E142D032DF22CEE24EA0CFB1C0C1D5A
:10F030001D1D0F940DF220E22093C6008091C000A8
:10F0400086FFFCCF8091C00080648093C000C65DC5
:10F05000DE4F8881CA52D1400F940DF230E23093D6
:10F06000C6008091C00086FFFCCF8091C000806404
:10F070008093C000C45DDE4F8881CC52D1400F9494
:10F080000DF240E24093C6008091C00086FFFCCFA5
:10F090008091C00080648093C000C55DDE4F888190
:10F0A000CB52D1400F940DF250E25093C6008091A4
:10F0B000C00086FFFCCF8091C00080648093C000B8
:10F0C0008FEFE8168FEFF80680E0080780E018075A
:10F0D00031F484E092EE60E00F94C2F1DFC0D80119
:10F0E000C7018070907CA070B0708050904CA040A0
:10F0F000B040D1F52FEF3FE340E050E0E222F322B1
:10F1000004231523CA5DDE4FA880B980CA80DB8046
:10F11000C652D140AE0CBF1CC01ED11EAA0CBB1CD7
:10F12000CC1CDD1C8EE092EE60E00F94C2F1BB2798
:10F13000A12F902F8F2D0F940DF28E2D0F940DF285
:10F1400030E23093C6008091C00086FFFCCF8091F2
:10F15000C00080648093C0004EE34093C60080915D
:10F16000C00086FFFCCF87C08EE09EEFA0E0B0E03D
:10F17000E822F9220A231B239CE0E91694E9F90608
:10F1800090E0090790E0190709F088C0C45DDE4FE0
:10F19000A881CC52D140EA2EFF2400E010E0102FCD
:10F1A0000F2DFE2CEE24C55DDE4FB881CB52D14031
:10F1B000EB0EF11C011D111DD601C501817090706F
:10F1C000A070B070DC0199278827E80EF91E0A1F8D
:10F1D0001B1F20EF30E040E050E0A222B322C42207
:10F1E000D52241E1AA0CBB1CCC1CDD1C4A95D1F7F1
:10F1F000EA0CFB1C0C1D1D1D81E090E0A0E0B0E0BE
:10F20000282239224A225B2235E1220C331C441C7D
:10F21000551C3A95D1F7E20CF31C041D151D57013E
:10F220006801AA0CBB1CCC1CDD1C85E192EE60E0E1
:10F230000F94C2F1C801AA27BB270F940DF2BB2778
:10F24000A12F902F8F2D0F940DF28E2D0F940DF274
:10F2500090E29093C6008091C00086FFFCCF809121
:10F26000C00080648093C000AEE3A093C60080918C
:10F27000C00086FFFCCF8091C00080648093C000F6
:10F28000C601AA27BB270F940DF2BB27AD2D9C2DDD
:10F290008B2D0F940DF28A2D0F940DF20F94DCF14B
:10F2A000CC5DDE4FE881F981C452D140F99709F471
:10F2B0004DCBF4E0EF2EF12C012D112D6E0C7F1CA7
:10F2C000801E911EF2CD83E093EE62E00F94F5F183
:10F2D0008AE192EE60E00F94C2F18091C00087FF56
:10F2E000FCCF1091C6001F751093C6008091C0001E
:10F2F00086FFFCCF8091C00080648093C0000F9493
:10F30000DCF1812F81548A3108F036C1163409F4BA
:10F3100095C0173490F4133409F44EC0143430F40B
:10F320001134F1F0123409F01DC130C0143409F465
:10F3300059C0153409F016C16BC01A3409F4C4C0A1
:10F340001B3438F4173409F48FC0183409F00AC19B
:10F35000A1C01B3409F4D2C01C3409F003C1E8C0B9
:10F360008FEF81B90DC082B1809582B980E090E0C5
:10F37000E0EDF7E03197F1F70196883C9105C1F790
:10F380008091C00087FFEFCF12B8EFC08FEF84B934
:10F390000DC085B1809585B980E090E0E0EDF7E0A3
:10F3A0003197F1F70196883C9105C1F78091C00033
:10F3B00087FFEFCF15B8D9C08FEF87B90DC088B1DF
:10F3C000809588B980E090E0E0EDF7E03197F1F7C3
:10F3D0000196883C9105C1F78091C00087FFEFCF6F
:10F3E00018B8C3C08FEF8AB90DC08BB180958BB9A7
:10F3F00080E090E0E0EDF7E03197F1F70196883C8E
:10F400009105C1F78091C00087FFEFCF1BB8ADC059
:10F410008FEF8DB90DC08EB180958EB980E090E0F0
:10F42000E0EDF7E03197F1F70196883C9105C1F7DF
:10F430008091C00087FFEFCF1EB897C08FEF80BBD1
:10F440000DC081B3809581BB80E090E0E0EDF7E0F6
:10F450003197F1F70196883C9105C1F78091C00082
:10F4600087FFEFCF11BA81C08FEF83BB0DC084B38C
:10F47000809584BB80E090E0E0EDF7E03197F1F714
:10F480000196883C9105C1F78091C00087FFEFCFBE
:10F4900014BA6BC08FEF809301010FC080910201FD
:10F4A00080958093020180E090E0E0EDF7E03197F5
:10F4B000F1F70196883C9105C1F78091C00087FF64
:10F4C000EDCF1092020151C08FEF809304010FC065
:10F4D0008091050180958093050180E090E0E0ED4A
:10F4E000F7E03197F1F70196883C9105C1F78091DB
:10F4F000C00087FFEDCF1092050137C08FEF8093DA
:10F5000007010FC08091080180958093080180E079
:10F5100090E0E0EDF7E03197F1F70196883C910536
:10F52000C1F78091C00087FFEDCF109208011DC088
:10F530008FEF80930A010FC080910B01809580931B
:10F540000B0180E090E0E0EDF7E03197F1F70196F4
:10F55000883C9105C1F78091C00087FFEDCF1092E4
:10F560000B0103C085E292EEEEC98091C00087FFD7
:10F57000FCCF8091C600EAC988E392EEE4C98CE131
:10F5800091EEE1C988249924933011F1943028F444
:10F59000913089F09230B8F408C0953061F195301F
:10F5A000F0F0963009F048C043C02B3109F042C951
:10F5B00091E06BE13FC96227C15DDE4F2883CF52E6
:10F5C000D14092E037C9B22FA0E0622793E032C960
:10F5D000822F90E0A82BB92B622794E02BC92E3004
:10F5E00009F039C3622795E0C05DDE4F19821882A9
:10F5F000C053D1401FC9E1E0F0E0EC0FFD1FC05D3A
:10F60000DE4F08811981C053D140E00FF11F2083E4
:10F610000F5F1F4FC05DDE4F19830883C053D14079
:10F6200062270A171B0709F005C9D80196E002C92D
:10F63000261709F010C303C0973009F0FBC87724E0
:10F640009981933109F412C19431C8F4963009F4C8
:10F65000D8C0973050F4923009F406C1933009F4C1
:10F660006DC0913009F059C253C0913109F477C08F
:10F67000923108F0BBC0903109F04FC2F5C098310B
:10F6800009F487C0993150F4953109F4EFC09531F0
:10F6900008F4C6C1963109F040C2C2C19A3109F4DA
:10F6A0006CC09A3108F491C09B3109F45BC09D3164
:10F6B00009F033C29D81903359F48F81882311F46E
:10F6C0009EE11CC0813011F091E018C098E916C08D
:10F6D000892F807591F0903539F4E0E0F0E089E011
:10F6E0008093570094910AC0983539F4E3E0F0E034
:10F6F00089E080935700949101C090E01A821B82A8
:10F700008D818C831D829E831F8227E030E009C299
:10F710001A8288E08B8381E48C8386E58D8382E581
:10F720008E8389E48F8383E5888780E589878FE5E9
:10F730008A8782E38B872BE030E0F3C18A818139AD
:10F7400041F0823941F0803911F48FE005C080E04A
:10F7500003C082E001C08AE01A828B8344C0772410
:10F76000739482C08D81882311F48EE12CC0813086
:10F7700011F081E028C088E926C01A82E1E0F0E0BB
:10F7800089E08093570084918B831C8224E030E0D1
:10F79000C8C18B81803589F48C81883039F4E2E0EE
:10F7A000F0E089E08093570084910DC0E0E0F0E044
:10F7B00089E080935700849106C0E3E0F0E089E09F
:10F7C0008093570084911A82DFCF8D81836C99E0FA
:10F7D000E1E0F0E0082E90935700E89507B600FCB2
:10F7E000FDCF1A821B8223E030E09BC180EC8A832C
:10F7F000CE5CDE4F188219821A821B82C253D1401E
:10F800008EC18A8190E0A0E0B0E0582F44273327D2
:10F8100022278B8190E0A0E0B0E0DC0199278827C7
:10F82000282B392B4A2B5B2B8D8190E0A0E0B0E098
:10F83000282B392B4A2B5B2B8C8190E0A0E0B0E089
:10F84000BA2FA92F982F8827282B392B4A2B5B2BCF
:10F85000220F331F441F551FC05EDE4F288339839C
:10F860004A835B83C052D1401A8259C13A81C95C34
:10F87000DE4F3883C753D140CA5CDE4F1882C6536F
:10F88000D1408B81C82EDD24CA5CDE4F488159816E
:10F89000C653D140C42AD52A933109F082C0CE5C28
:10F8A000DE4F88819981AA81BB81C253D1408050AB
:10F8B000904CA340B04030F583E0CE5CDE4FE88052
:10F8C000F9800A811B81C253D140F70100935B008C
:10F8D00080935700E89507B600FCFDCFCE5CDE4F65
:10F8E000088119812A813B81C253D14000501F4FAA
:10F8F0002F4F3F4FCE5CDE4F088319832A833B8313
:10F90000C253D140C05EDE4F488159816A817B81FC
:10F91000C052D140DE011B9631E08C9111962C91A2
:10F9200011971296C75CDE4F2883C953D140C85C3B
:10F93000DE4F1882C853D14090E0C85CDE4FE881AA
:10F94000F981C853D1408E2B9F2B0C01FA01609393
:10F950005B0030935700E89511244E5F5F4F6F4F67
:10F960007F4F0EEFE02E0FEFF02ECE0CDF1CC114F8
:10F97000D10499F685E0C05EDE4F088119812A81A5
:10F980003B81C052D140F80120935B008093570027
:10F99000E89507B600FCFDCF81E180935700E8951C
:10F9A00035C0C05EDE4F88819981AA81BB81C0527B
:10F9B000D140B695A795979587957C018601ABE0D8
:10F9C000AA2EB12CAC0EBD1E0BC0D5016D915D01F0
:10F9D000C7010F947FFE0894E11CF11C01501040F8
:10F9E0000115110591F7A60160E070E0440F551F65
:10F9F000661F771FC05EDE4FE880F9800A811B8199
:10FA0000C052D1404E0D5F1D601F711F1A82C05E33
:10FA1000DE4F488359836A837B83C052D1407FC0C5
:10FA2000FA80C55CDE4FF882CB53D140C65CDE4F16
:10FA30001882CA53D1408B81C82EDD24C65CDE4FAC
:10FA400008811981CA53D140C02AD12A1A828981DA
:10FA5000BE016D5F7F4F843121F59601C05EDE4FA0
:10FA6000E880F9800A811B81C052D1400BBFF701A9
:10FA700087919691DB018C9311969C936E5F7F4FDB
:10FA8000D801C7010296A11DB11DC05EDE4F88835B
:10FA90009983AA83BB83C052D14022503040F1F6F3
:10FAA00036C0C05EDE4F288139814A815B81C052F9
:10FAB000D1400894C108D108760100E010E0089414
:10FAC000C11CD11C0894E11CF11C011D111DE20E8A
:10FAD000F31E041F151F21BDBB27A52F942F832FB5
:10FAE00082BD2F5F3F4F4F4F5F4FF89A80B5DB01CC
:10FAF0008D93BD012E153F054007510761F7C05E8C
:10FB0000DE4F288339834A835B83C052D1409601FC
:10FB10002D5F3F4FFB01108204C080EC8A8322E0FE
:10FB200030E08BE18093C6008091C00086FFFCCF5F
:10FB30008091C00080648093C000C15DDE4FF88179
:10FB4000CF52D140F093C6008091C00086FFFCCF19
:10FB50008091C00080648093C000432F3093C60022
:10FB60008091C00086FFFCCF8091C00080648093AC
:10FB7000C000922F2093C6008091C00086FFFCCF6A
:10FB80008091C00080648093C0008EE08093C600A6
:10FB90008091C00086FFFCCF8091C000806480937C
:10FBA000C00065E1C15DDE4FE880CF52D1406E25D7
:10FBB00069276427FE01319610C090819093C6009A
:10FBC0008091C00086FFFCCF31968091C000806498
:10FBD0008093C0006927215030402115310569F715
:10FBE0006093C6008091C00086FFFCCF8091C0006A
:10FBF00080648093C00085B1805885B9772081F4F6
:10FC0000C15DDE4F0881CF52D1400F5FC15DDE4F35
:10FC10000883CF52D14090E0A0E0B0E00D941AF4F8
:10FC200027982F9880E090E020ED37E0F901319798
:10FC3000F1F7019684369105C9F700008091C00064
:10FC40008D7F8093C00081E180935700E895EE2777
:10FC5000FF270994FFCF90E00D941AF497FB092E2B
:10FC600007260AD077FD04D02ED006D000201AF443
:10FC7000709561957F4F0895F6F7909581959F4F08
:10FC80000895A1E21A2EAA1BBB1BFD010DC0AA1FDD
:10FC9000BB1FEE1FFF1FA217B307E407F50720F0F5
:10FCA000A21BB30BE40BF50B661F771F881F991F70
:10FCB0001A9469F760957095809590959B01AC01B9
:10FCC000BD01CF010895AA1BBB1B51E107C0AA1FAC
:10FCD000BB1FA617B70710F0A61BB70B881F991FED
:10FCE0005A95A9F780959095BC01CD010895F99991
:10FCF000FECF92BD81BDF89A992780B50895262F31
:10FD0000F999FECF1FBA92BD81BD20BD0FB6F89400
:0EFD1000FA9AF99A0FBE01960895F894FFCF63
:040000033000E000E9
:00000001FF