:10000000EFC000001EC100001CC100001AC10000AA
:1000100018C1000016C1000014C1000012C1000088
:1000200010C100000EC100000CC100000AC1000098
:1000300008C1000006C1000004C1000002C10000A8
:1000400000C10000FEC00000FCC00000FAC00000BB
:10005000F8C00000F6C00000F4C000000C94890C49
:10006000F0C000000C944D0C0C94230CEAC000006E
:10007000E8C00000E6C00000E4C00000E2C00000EC
:10008000E0C00000DEC00000DCC00000DAC00000FC
:10009000D8C00000D6C00000D4C00000D2C000000C
:1000A000D0C00000CEC00000CCC00000CAC000001C
:1000B000C8C00000C6C00000C4C00000C2C000002C
:1000C000C0C00000BEC00000BCC00000BAC000003C
:1000D000B8C00000B6C00000B4C00000B2C000004C
:1000E000B0C00000000020002300260029002C00E2
:1000F0002F00320000010000030106010901005E2B
:10010000BCE2613FDD83C29C7E20A3FD1F41009DB8
:1001100023BE46DB65F88C11AF32CA57E974000084
:100120002200250028002B002E003100340002019F
:100130000000050108010B01000021002400270038
:100140002A002D00300033000101000004010701E6
:100150000A0105050505070508080808020202024C
:100160000A0A080804040404010101010101010153
:100170000303030303030303040707070C0C0C0C1E
:100180000C0C0C0C02020202060606060606060607
:100190000B0B0B0B0B0B0B0B010210202008081094
:1001A00020401020408002010201080402010102E7
:1001B00004081020408080402010080402018004C0
:1001C000020180402010080402010804020101021B
:1001D0000408102040800102040810204080E40C34
:1001E00011241FBECFEFD1E2DEBFCDBF00E00CBFB8
:1001F00013E0A0E0B2E0E8EAFEE100E00BBF02C0DD
:1002000007900D92AA36B107D9F724E0AAE6B3E029
:1002100001C01D92A234B207E1F710E0C0EFD0E0B8
:1002200000E006C021970109802FFE010E944A0FBD
:10023000CF3ED10780E00807A9F70E941C0C0C9460
:10024000520FDECE0895DC01ED91FC910190F0811A
:10025000E02D19950895CF92DF92EF92FF920F93C0
:100260001F93CF93DF938C01DB01D0E0C0E07A01D4
:1002700081E0E81AF108452BA1F0F8018081918115
:10028000FC01208131816D01FFEFCF1ADF0A6C91F3
:10029000C801F9011995892B21F02196A701D601F2
:1002A000E6CFCE01DF91CF911F910F91FF90EF909C
:1002B000DF90CF90089508956FEF7FEF81E090E099
:1002C00001C00895019709F008956F3F7F4FE1F74E
:1002D000E5EAF3E01382128288EE93E0A0E0B0E05A
:1002E00084839583A683B78384E092E0918380839F
:1002F00085EC90E09587848784EC90E097878687EB
:1003000080EC90E0918B808B81EC90E0938B828BE2
:1003100082EC90E0958B848B86EC90E0978B868BBB
:10032000118E128E138E148ECFCFFC01938D848D7F
:10033000981720F4891B990B019708952FE330E05B
:10034000291B3109820F932F911D0895FC01918D76
:10035000828D981761F0A28DAE0FBF2FB11D5D96F3
:100360008C91928D9F5F9F73928F90E008958FEF95
:100370009FEF0895FC01918D828D981731F0828D49
:10038000E80FF11D858D90E008958FEF9FEF0895A0
:10039000FC01218D30E0205C3F4F828DA901481B7C
:1003A0005109CA018F739927089585EA93E0F0DF18
:1003B00021E0892B09F420E0822F0895CF92DF926B
:1003C000EF92FF921F93CF93DF93EC016A017B01C1
:1003D000122F60E079E08DE390E0A70196010E9482
:1003E000140F215031094109510956954795379508
:1003F0002795E889F98982E08083C11481EED806C7
:10040000E104F10421F0211580E1380798F0E88932
:10041000F989108260E874E88EE190E0A701960106
:100420000E94140F215031094109510956954795F1
:1004300037952795EC85FD853083EE85FF852083F4
:10044000188EEC89FD891083EA89FB89808180619F
:100450008083EA89FB89808188608083EA89FB89BF
:10046000808180688083EA89FB8980818F7D808399
:10047000DF91CF911F91FF90EF90DF90CF90089583
:10048000FC01A48DA80FB92FB11DA35ABF4F2C9109
:10049000848D90E001968F739078848FA689B789B8
:1004A0002C93A089B1898C91837080648C93938DF7
:1004B000848D981308950288F389E02D80818F7DC3
:1004C0008083F8CF0F931F93CF93DF93EC0181E0EC
:1004D000888F9B8D8C8D9817A9F0062F8B8D90E0BF
:1004E00001968F739078182F8C8D81131DC00FB6D5
:1004F00007FCFACFE889F989808185FFF5CFCE0125
:10050000BFDFF2CFE889F989808185FFE6CF9FB709
:10051000F894EE89FF896083E889F9898081837086
:10052000806480839FBF10C0EB8DEC0FFD2FF11D09
:10053000E35AFF4F00839FB7F8941B8FEA89FB892A
:100540008081806280839FBF81E090E0DF91CF91C6
:100550001F910F910895CF93DF93EC01888D811146
:1005600004C00DC00FB607FE0DC0EA89FB8980816B
:1005700085FDF8CFA889B9898C9186FFF3CFDF91EB
:10058000CF910895808185FFF0CFE889F989808136
:1005900085FFEBCFCE0174DFE8CF80E090E0892BC0
:1005A00019F003DF811125C080E090E0892B41F034
:1005B00080E090E0892B21F00E94000081111CC096
:1005C00080E090E0892B41F080E090E0892B21F0E1
:1005D0000E940000811113C080E090E0892B41F05F
:1005E00080E090E0892B21F00E94000081110AC078
:1005F00008950E940000D8CF0E940000E1CF0E9421
:100600000000EACF0E940000F3CFCF93DF9390E089
:10061000FC01E856FE4F24918E5A9E4FFC018491B6
:10062000882319F190E0880F991FFC01E85CFE4FC8
:10063000A591B491FC01E25EFE4FC591D491662371
:1006400049F06230A9F08FB7F894EC91E22BEC936B
:100650008FBF0BC09FB7F8948C91E22FE0958E234B
:100660008C938881E823E8839FBFDF91CF91089521
:100670009FB7F8943C91822F809583238C93E881D7
:10068000E22BE8839FBFF1CF789484B5826084BD6C
:1006900084B5816084BD85B5826085BD85B5816086
:1006A00085BDEEE6F0E0808181608083E1E8F0E0E6
:1006B0001082808182608083808181608083E0E815
:1006C000F0E0808181608083E1EBF0E080818460F4
:1006D0008083E0EBF0E0808181608083E1E9F0E0FD
:1006E000808182608083808181608083E0E9F0E0A6
:1006F000808181608083E1EAF0E080818260808394
:10070000808181608083E0EAF0E080818160808385
:10071000E1E2F1E08081826080838081816080837A
:10072000E0E2F1E0808181608083EAE7F0E08081AF
:100730008460808380818260808380818160808307
:100740008081806880831092C10008958230910575
:1007500038F0880F991F880F991F05970197F1F7B7
:1007600008953FB7F8948091A1039091A203A091BE
:10077000A303B091A40326B5A89B05C02F3F19F091
:100780000196A11DB11D3FBFBA2FA92F982F882711
:10079000BC01CD01620F711D811D911D660F771F78
:1007A000881F991F660F771F881F991F08958F92C2
:1007B0009F92AF92BF92CF92DF92EF92FF926B0126
:1007C0007C01CFDF4B015C011AC021E0C21AD108C5
:1007D000E108F10888EE880E83E0981EA11CB11C88
:1007E000C114D104E104F10451F0BBDF68197909A7
:1007F0008A099B09683E73408105910530F7C11451
:10080000D104E104F10461F7FF90EF90DF90CF9005
:10081000BF90AF909F908F9008952FB7F8946091FC
:100820009D0370919E0380919F039091A0032FBF21
:100830000895DC01E0E04FEF460F6623B1F09D0123
:100840002F5F3F4F8C918E27E82FEF70F0E0E25042
:10085000FF4F949182958F70E82FF0E0E25FFE4F9A
:10086000E491E927642FD901E6CF8E2F0895DC01AA
:100870001B961C921B971D961C921D971C961C92F2
:100880001C9727E030E0FD01E20FF31F13822115D2
:10089000310519F021503109F6CF08950F931F93B8
:1008A000CF93DF93FC011081C181D281F8948981BB
:1008B000812B89838A81012F009580238A8383E09D
:1008C00090E044DF8981802389838AE090E03EDFE5
:1008D0008881812359F4C0E0789485E390E036DF85
:1008E0008C2FDF91CF911F910F910895C1E0F4CF2C
:1008F0000F931F93CF93DF938C01D0E0C1E001C031
:10090000CC0FCC2331F0C801C9DF8823C9F3DC2B1D
:10091000F7CF8D2FDF91CF911F910F9108951F93E6
:10092000CF93DF93FC011081C181D28160FD17C09C
:10093000F8949A81812F809589238A838981812BDC
:10094000898381E490E002DF8A81182B1A837894EE
:1009500085E090E0FBDEDF91CF911F910895F89440
:100960009A81812F809589238A838981812B89832C
:100970008AE090E0EBDE8A81182B1A83789487E373
:1009800090E0E4DEE8CFFF920F931F93CF93DF93C5
:100990008C01D62FF42EC1E004C060E0C801BFDF97
:1009A000CC0FCC2329F08C2F8D23B9F361E0F6CF47
:1009B000F11015C0F894D8011196ED91FC911297A1
:1009C00091818C918095892381831196ED91FC9181
:1009D000129792818C918095892382837894DF91FC
:1009E000CF911F910F91FF90089540E06CECCBCF19
:1009F0000895EF92FF920F931F93CF938C017B0189
:100A000040E065E5C0DFC0E0C83048F4F701EC0F16
:100A1000F11D40E06081C801B6DFCF5FF5CFCF9117
:100A20001F910F91FF90EF900895FF920F931F93E6
:100A3000CF93DF93FC01D08101811281F894F801FA
:100A40008181FD2EF0948F2181837894CDE7C15070
:100A500021F182E090E07ADEF80180818D23B9F304
:100A6000F89482818F21828381818D2B8183789478
:100A700080EE91E06BDEF894F8018181F822F1823A
:100A800086E490E063DEF8018081D823C1E009F0BC
:100A9000C0E078948AE991E059DE8C2FDF91CF9104
:100AA0001F910F91FF900895BF92CF92DF92EF9226
:100AB000FF920F931F93CF93DF93EC016B01042FF1
:100AC0001D85112379F01B861D861C8610E0812F61
:100AD000DF91CF911F910F91FF90EF90DF90CF901A
:100AE000BF900895A2DF882361F0002371F040E0F9
:100AF00060EFCE0148DF01E0F12CB12CEE24E3944D
:100B00004CC01B861D861C86E2CF40E06CEECE01F9
:100B10003ADFF1CF813009F048C080E48E1598F6B5
:100B2000BB86B11002C081E08D878B81882359F28A
:100B300090E080E0883091050CF04CC0F601E80FA1
:100B4000F91FDE01A80FB91F13962C91208301967F
:100B5000F1CF8B85E81648F4FE01EF0DF11D83817E
:100B6000802311E029F410E003C011E08E1110E0A1
:100B700011111DC088E08E1518F0EC86BE2C17C030
:100B8000BE2C15C0FE01EF0DF11D8381802B8383E8
:100B900018C087E08F1508F4C0CFCE017FDE182F74
:100BA000CE017CDE113009F4B5CF181791F2113067
:100BB00049F3FE01EF0DF11D8381902F909589235C
:100BC0008383612FCE01ABDEE394000F11F7F39422
:100BD00001E0DFCF11E07BCF1F93CF93DF93EC01D8
:100BE000162F60E0812F11DD612F70E0FB01E856C8
:100BF000FE4FE491E883FB01EE5AFE4FE491F0E0F2
:100C0000EE0FFF1FEC51FF4F859194919A838983DA
:100C1000CE012DDEDF91CF911F910895FC01738BE2
:100C2000628B0895813824EE920764F0BC01072E90
:100C3000000C880B990BCAD720E030E040E05CE361
:100C40000C949A0E60E070E08EEF92EC089526E628
:100C500036E646EE5FE30E949A0E20E030E040E088
:100C600052E4B6C6FC0180810895FA01818190E0CA
:100C7000982F8827990F990F990F208130E0220F24
:100C8000331F220F331F220F331F822B932BDB01C5
:100C90002C91203109F00895880F991F880F991F12
:100CA000880F991F9C012078678170E08681AB01D5
:100CB000481B5109CA019695982F882797958795C3
:100CC0000E94010FCB01820F931F4097E4CF6A303F
:100CD00069F06B3041F0693019F08EEE92E00895C2
:100CE0008EE590E0089587E791E008958CEB90E021
:100CF0000895FC0186819781D1DD91E0813009F072
:100D000090E0892F08958F929F92AF92BF92CF92D9
:100D1000DF92EF92FF920F931F93CF93DF93EC013B
:100D2000D6DF8C018B81882319F08881882391F08C
:100D3000B801110F880B990B3ADDDF91CF911F910C
:100D40000F91FF90EF90DF90CF90BF90AF909F906A
:100D50008F90089562DD6B017C01CE01CADF8111A5
:100D6000ECCF5BDD4801012E000CAA08BB08681916
:100D700079098A099B096C157D058E059F0568F325
:100D8000DCCFCF93DF93EC018E819F814EDE8E818D
:100D90009F812BDE488164E48E819F81F4DD8A810E
:100DA000811103C0DF91CF9108956981CE01ABDF3E
:100DB000F9CF0F931F93CF93DF93EC018B018E81BB
:100DC0009F8133DEB8018E819F8113DE40E064EBAA
:100DD0008E819F81D8DD8E819F8160DD81110AC067
:100DE00011E08E819F8121DE812FDF91CF911F91B4
:100DF0000F91089510E0F5CFEF92FF920F931F939C
:100E0000CF93DF93EC018B017A018E819F810DDE00
:100E1000B8018E819F81EDDD40E06EE48E819F817F
:100E2000B2DD40E0F70162818E819F81ACDD40E060
:100E3000F70163818E819F81A6DDF8018081803179
:100E4000F1F48E819F81F1DDB8018E819F81D1DD2A
:100E5000488168E48E819F8196DD64E170E080E0E6
:100E600090E0A5DC8881811111C08E819F81DDDD3C
:100E7000DF91CF911F910F91FF90EF90089540E087
:100E8000F70164818E819F817EDDDBCF6AE070E0B7
:100E900080E090E08CDCE9CFCF92DF92EF92FF927E
:100EA0000F931F93CF937C018B016A01FC01868114
:100EB0009781BBDD81110AC090E0892FCF911F91EE
:100EC0000F91FF90EF90DF90CF900895B801F70158
:100ED000868197818EDD40E06EEBF70186819781F8
:100EE00052DDC0E0C93058F486010C0F111DF70126
:100EF00086819781FDDCF8018083CF5FF3CFF70116
:100F00008681978192DD91E08130B9F290E0D5CF72
:100F10000F931F93CF938A01BFDFC82F811105C0A4
:100F20008C2FCF911F910F91089568E0C80181DC4B
:100F3000F80190858917A1F3C0E0F2CFEF92FF92FC
:100F40000F931F93CF93DF9300D000D000D0CDB785
:100F5000DEB78C017B01AE014F5F5F4FD9DF882385
:100F600099F0AE014F5F5F4FB701C8017EDE299651
:100F70000FB6F894DEBF0FBECDBFDF91CF911F91AA
:100F80000F91FF90EF90089580E894EEF0CFD6DFB8
:100F900049CE0895CF93DF9300D000D000D0CDB7D5
:100FA000DEB7FB0120812031C1F0AE014F5F5F4F02
:100FB000AFDF8823A1F08D818F3369F030F08F355A
:100FC000C1F08F3731F48CE00BC08F3111F489E020
:100FD00007C080E005C08AE003C08CE001C080E06B
:100FE00029960FB6F894DEBF0FBECDBFDF91CF912B
:100FF00008958BE0F5CFCF93DF93EB0167E0CE014F
:1010000018DC2F8191E0821390E0892FDF91CF913E
:101010000895EF92FF920F931F93CF93DF938C016C
:101020007B01D42FFC018681978121DCC0E001C0C7
:10103000CF5FDC1780F041E0B701F801868197812E
:1010400033DD882349F0CD13F3CFB701C801D3DFD7
:10105000882371F301C080E0DF91CF911F910F9140
:10106000FF90EF900895BF92CF92DF92EF92FF92A0
:101070000F931F93CF93DF93CDB7DEB761970FB672
:10108000F894DEBF0FBECDBF7C016B01B22E49309C
:1010900028F0142F4D3018F01CE001C019E0B60103
:1010A000C70178DF811709F457C0AE014F5F5F4F6A
:1010B000B601C7012DDF082F882309F44EC0F601C1
:1010C0008081803109F449C01B30F1F01C3029F0D7
:1010D0001A30E9F08FE18D8302C08FE78D83AE0176
:1010E0004F5F5F4FB601C70187DEF7018181181797
:1010F00008F0812FF7018183B11040C0181768F5FF
:101100001183D12CC12C10C08FE58D83E8CF8FE3E4
:101110008D83E5CFBE01665F7F4FC7013BDFF701DF
:101120008183FFEFCF1ADF0AF70184818C151D043C
:10113000A1F09CF04C2DBE01665F7F4FC70169DFB7
:10114000F7011181BE01665F7F4FC70123DF811761
:1011500008F7F7018181E3CF01E0802F61960FB698
:10116000F894DEBF0FBECDBFDF91CF911F910F91DD
:10117000FF90EF90DF90CF90BF9008950B2DEDCFB3
:10118000FC0184810895FC017783668314821582B3
:10119000108289E0818381E0828383830895FB014B
:1011A0008081883259F030F4803141F0823231F060
:1011B00080E008958B3311F08234D1F781E00895F7
:1011C000FF920F931F93CF93DF9300D000D01F9215
:1011D0001F92CDB7DEB78C01FC018681978147DB7A
:1011E000F8011482158241E0BE016F5F7F4FF80164
:1011F0008681978159DC8823C1F1BE016F5F7F4FE3
:10120000C801F9DE882379F3F80180818823E1F0B1
:10121000F801F180BE016F5F7F4FC801BBDE8F1503
:10122000F0F4F8018181F801818384818F5F8483E8
:10123000BE016F5F7F4FC801B2DF8823A1F2F801C2
:1012400085818F5F8583CFCFBE016F5F7F4FC801E0
:10125000B0DD8823E9F281E0F8018083D9CFBE01B7
:101260006F5F7F4FC80196DEDECF28960FB6F894E9
:10127000DEBF0FBECDBFDF91CF911F910F91FF90C9
:101280000895CF93DF93EC017EDF70E060E0CE0144
:10129000C5DCDF91CF9108956FEF7FEF81E090E0A3
:1012A00001C00895019709F008956F3F7F4FE1F75E
:1012B00064E08EE893E090DC6EE873E08AE793E008
:1012C000E0DFF2CFDF92EF92FF920F931F93CF9365
:1012D000DF93CDB7DEB7A1970FB6F894DEBF0FBE90
:1012E000CDBF7C01CB01BA01D22E19A221E02D1570
:1012F00020F48E010F5D1F4F0EC00F2EFAE0DF2E7F
:10130000F02DF7CFE95CD801EE938D0161157105E1
:101310008105910571F02D2D30E050E040E084D53D
:10132000E62F622F732F842F952FEA305CF7E05D54
:10133000EACF1097F9F0FD0101900020E9F731970D
:10134000AF014A1B5B0BD701ED91FC910280F38149
:10135000E02DB801C7011995A1960FB6F894DEBF2C
:101360000FBECDBFDF91CF911F910F91FF90EF90F6
:10137000DF90089590E080E0EFCF2115310549F42A
:10138000DC01ED91FC910190F081E02D642F199525
:10139000089598CF08959A01AB0170E060E0EDCF19
:1013A00008959A01462F50E070E060E0E6CF08957E
:1013B000DC01ED91FC910280F381E02D42E050E0F0
:1013C00062E172E0199508956115710581F0FB01E4
:1013D00001900020E9F73197AF01461B570BDC0164
:1013E000ED91FC910280F381E02D1995089590E034
:1013F00080E008954F925F926F927F92AF92BF927A
:10140000CF92DF92EF92FF920F931F93CF93DF93D0
:1014100000D01F921F92CDB7DEB75C016A017B013D
:101420002D83AB019601CB01B601E7D481114BC0EE
:1014300026013701E89477F821E029832FEF3FEF69
:101440004FE75FE7C301B201D8D481110AC02FEF83
:101450003FEF4FE75FE7C301B2011ED318160CF44C
:10146000198289818823A9F12FEF3FEF4FE75FE4CD
:10147000C701B6015BD418160CF445C02FEF3FEF3F
:101480004FE75FECC701B60107D388230CF441C0D6
:1014900020E030E0A901C701B601FED288230CF498
:1014A0003EC0712C612C10E060E070E080E09FE3B2
:1014B0002D81121708F03DC020E030E040E251E4F9
:1014C000EFD21F5FF5CF65E172E0C5017DDF8C01D2
:1014D00005C069E172E0C50177DF8C01C8010F909A
:1014E0000F900F900F900F90DF91CF911F910F9160
:1014F000FF90EF90DF90CF90BF90AF907F906F9074
:101500005F904F9008956DE172E0C5015DDF8C0141
:10151000E5CF6DE172E0C50157DF8C01DFCF6DE2F1
:10152000C5010E9423013C01F7FAF094F7F8F0940A
:10153000BACF9B01AC01C701B6014AD26B017C0155
:1015400017D369837A838B839C833ED39B01AC0141
:10155000C701B6013CD26B017C012AE030E0498131
:101560005A816B817C81C50108DF8301080F191F37
:101570008D81811126C02D81215029838D81882361
:1015800009F4ACCF20E030E040E251E4C701B601FD
:10159000D1D32B013C01ECD26B014AE050E0C501F4
:1015A000FADE080F191FB60190E080E00DD39B0111
:1015B000AC01C301B2010BD26B017C0129812D83E7
:1015C000DACF6EE2C5010E942301080F191FD3CFA5
:1015D00011CF08950F931F93CF93DF93EC01F4DEA7
:1015E0008C01CE01E5DE800F911FDF91CF911F911D
:1015F0000F910895CF92DF92EF92FF92BC018AE79C
:1016000093E0C5DC6B017C0161E272E085EA93E066
:10161000DBDE22E030E0B701A60185EA93E0D8DF07
:101620006AE272E085EA93E0CFDEC701B6010FDB24
:10163000AB01BC0122E030E085EA93E0C9DFFF9016
:10164000EF90DF90CF900895EF92FF920F931F934A
:10165000CF937C01C0E008C040E150E0F801608118
:1016600085EA93E09EDECF5FC83068F487010C0FF7
:10167000111DF8018081803178F761EC72E085EA14
:1016800093E0A2DEE9CFCF911F910F91FF90EF90F1
:10169000089526E040E052EC61E070E085EA93E0D6
:1016A0000E94DE0164E372E085EA93E093DF8AE75B
:1016B00093E086DD6FE572E085EA93E085DE63E71F
:1016C00072E085EA93E080DE8AE793E059DD4AE044
:1016D00050E0682F85EA93E064DE6AE772E085EA0D
:1016E00093E078DF64E872E085EA93E06DDE8AE7F4
:1016F00093E0B8DA882309F462C068E972E085EA09
:1017000093E068DF40E062E773E08AE793E081DC22
:10171000882309F45AC041E06AE673E08AE793E05F
:1017200078DC882309F457C067EE72E085EA93E01D
:101730004BDE82E793E088DF85EA93E039DE6AEFEB
:1017400072E085EA93E040DE8AE693E07DDF85EA99
:1017500093E02EDE20E049E062E773E08AE793E061
:1017600082DC20E049E06AE673E08AE793E07BDC14
:101770006DE073E085EA93E027DE62E773E08AE7D5
:1017800093E008DC4AE050E0682F85EA93E009DE48
:1017900085EA93E00DDE63E273E085EA93E014DE10
:1017A0006AE673E08AE793E0F5DB4AE050E0682FF1
:1017B00085EA93E0F6DD85EA93E0FACD08956BE9DA
:1017C00072E085EA93E006DF9DCF6FE972E085EA7B
:1017D00093E000DFA0CF63EC72E085EA93E0FADEED
:1017E000A3CFCF93DF93EC0169E373E085EA93E045
:1017F000EBDDCE0129DF68E272E085EA93E0E4DD0B
:10180000CE01F8DE85EA93E0D3DDDF91CF91089534
:101810006AE473E085EA93E0D7DD8AE793E0B1DA22
:1018200065E673E085EA93E0D5DE82E793E0D9DFF1
:101830008AE693E0D6CF08950E9444032ADFE8DFCA
:101840000E94CD02FCCF1F920F920FB60F9211246F
:101850000BB60F922F933F934F935F936F937F93AA
:101860008F939F93AF93BF93EF93FF9385EA93E09A
:101870000E944002FF91EF91BF91AF919F918F9194
:101880007F916F915F914F913F912F910F900BBE80
:101890000F900FBE0F901F9018951F920F920FB6CA
:1018A0000F9211240BB60F922F938F939F93AF93A8
:1018B000BF93EF93FF93E091B503F091B60380815E
:1018C00082FD14C0E5EAF3E0A689B7892C91818DE9
:1018D0008F5F8F73928D891771F0DF01E18DF0E0DA
:1018E000EB55FC4F258F59968C9305C0E091BB03B7
:1018F000F091BC038081FF91EF91BF91AF919F91D7
:101900008F912F910F900BBE0F900FBE0F901F90D5
:1019100018951F920F920FB60F9211240F931F93D9
:101920002F933F934F935F936F937F938F939F93E7
:10193000AF93BF9300919D0310919E0320919F034D
:101940003091A00390919C03B901A8014F5F5F4FB4
:101950006F4F7F4F83E0890F8D3740F086E8890F06
:10196000B901A8014E5F5F4F6F4F7F4F80939C037B
:1019700040939D0350939E0360939F037093A00335
:101980008091A1039091A203A091A303B091A4031D
:101990000196A11DB11D8093A1039093A203A09372
:1019A000A303B093A403BF91AF919F918F917F91B7
:1019B0006F915F914F913F912F911F910F910F90D8
:1019C0000FBE0F901F9018950E945C0165CC505877
:1019D000BB27AA270ED070C161D130F066D120F0AC
:1019E00031F49F3F11F41EF456C10EF4E095E7FB6D
:1019F0004CC1E92F72D180F3BA17620773078407CD
:101A0000950718F071F49EF58AC10EF4E0950B2E3F
:101A1000BA2FA02D0B01B90190010C01CA01A00140
:101A20001124FF27591B99F0593F50F4503E68F19B
:101A30001A16F040A22F232F342F4427585FF3CFDC
:101A4000469537952795A795F0405395C9F77EF4AD
:101A50001F16BA0B620B730B840BBAF09150A1F0F6
:101A6000FF0FBB1F661F771F881FC2F70EC0BA0F7C
:101A7000621F731F841F48F4879577956795B79504
:101A8000F7959E3F08F0B3CF9395880F08F09927FC
:101A9000EE0F979587950895D4D008F481E00895C6
:101AA0000CD00AC102D140F0F9D030F021F45F3FF0
:101AB00019F0EBC0511134C1EEC00FD198F3992346
:101AC000C9F35523B1F3951B550BBB27AA27621702
:101AD0007307840738F09F5F5F4F220F331F441F47
:101AE000AA1FA9F333D00E2E3AF0E0E830D091507F
:101AF0005040E695001CCAF729D0FE2F27D0660F6C
:101B0000771F881FBB1F261737074807AB07B0E8AA
:101B100009F0BB0B802DBF01FF2793585F4F2AF0C0
:101B20009E3F510568F0B1C0FBC05F3FECF3983EAB
:101B3000DCF3869577956795B795F7959F5FC9F71D
:101B4000880F911D9695879597F90895E1E0660FA6
:101B5000771F881FBB1F621773078407BA0720F01F
:101B6000621B730B840BBA0BEE1F88F7E095089588
:101B7000BCD088F09F5790F0B92F9927B751A0F0AB
:101B8000D1F0660F771F881F991F1AF0BA95C9F711
:101B900012C0B13081F0C3D0B1E00895C0C0672F4A
:101BA000782F8827B85F39F0B93FCCF386957795C1
:101BB0006795B395D9F73EF49095809570956195AA
:101BC0007F4F8F4F9F4F0895E89409C097FB3EF4D5
:101BD00090958095709561957F4F8F4F9F4F99237A
:101BE000A9F0F92F96E9BB279395F69587957795F8
:101BF0006795B795F111F8CFFAF4BB0F11F460FFB8
:101C00001BC06F5F7F4F8F4F9F4F16C0882311F00F
:101C100096E911C0772321F09EE8872F762F05C023
:101C2000662371F096E8862F70E060E02AF09A95BE
:101C3000660F771F881FDAF7880F9695879597F9B3
:101C40000895990F0008550FAA0BE0E8FEEF16164D
:101C50001706E807F907C0F012161306E407F507A0
:101C600098F0621B730B840B950B39F40A2661F014
:101C7000232B242B252B21F408950A2609F4A140B7
:101C8000A6958FEF811D811D089597F99F6780E8C4
:101C900070E060E008959FEF80EC089500240A94BE
:101CA0001616170618060906089500240A94121637
:101CB0001306140605060895092E0394000C11F46A
:101CC000882352F0BB0F40F4BF2B11F460FF04C017
:101CD0006F5F7F4F8F4F9F4F089557FD9058440F70
:101CE000551F59F05F3F71F04795880F97FB991F7B
:101CF00061F09F3F79F08795089512161306140638
:101D0000551FF2CF4695F1DF08C0161617061806C4
:101D1000991FF1CF86957105610508940895E8949F
:101D2000BB2766277727CB0197F908958ADF08F448
:101D30008FEF08950BD0C0CFB1DF28F0B6DF18F0D9
:101D4000952309F0A2CFA7CF1124EACFC6DFA0F3D5
:101D5000959FD1F3950F50E0551F629FF001729F40
:101D6000BB27F00DB11D639FAA27F00DB11DAA1F5F
:101D7000649F6627B00DA11D661F829F2227B00DAC
:101D8000A11D621F739FB00DA11D621F839FA00D37
:101D9000611D221F749F3327A00D611D231F849F87
:101DA000600D211D822F762F6A2F11249F575040DE
:101DB0008AF0E1F088234AF0EE0FFF1FBB1F661F79
:101DC000771F881F91505040A9F79E3F510570F032
:101DD0005CCFA6CF5F3FECF3983EDCF3869577951A
:101DE0006795B795F795E7959F5FC1F7FE2B880F2D
:101DF000911D9695879597F9089523DF880B990B88
:101E0000089597FB072E16F4009406D077FD08D0AE
:101E10002DD007FC05D03EF4909581959F4F0895F5
:101E2000709561957F4F0895A1E21A2EAA1BBB1BE6
:101E3000FD010DC0AA1FBB1FEE1FFF1FA217B30796
:101E4000E407F50720F0A21BB30BE40BF50B661FAC
:101E5000771F881F991F1A9469F760957095809570
:101E600090959B01AC01BD01CF010895AA1BBB1B3E
:101E700051E107C0AA1FBB1FA617B70710F0A61B8A
:101E8000B70B881F991F5A95A9F780959095BC01AB
:101E9000CD010895EE0FFF1F881F8BBF0790F691AD
:081EA000E02D1994F894FFCF26
:101EA8000000000062022B019501AB02C801A601E7
:101EB800BA010D0A006E616E00696E66006F766683
:101EC8000054656D7020433A20002054656D7020E1
:101ED800463A200044616C6C61732054656D7065EE
:101EE80072617475726520494320436F6E74726F16
:101EF8006C204C6962726172792044656D6F004C88
:101F08006F636174696E6720646576696365732EB3
:101F18002E2E00466F756E64200020646576696316
:101F280065732E00506172617369746520706F77F4
:101F380065722069733A20004F4E004F464600559F
:101F48006E61626C6520746F2066696E64206164DE
:101F5800647265737320666F722044657669636581
:101F6800203000556E61626C6520746F2066696E62
:101F780064206164647265737320666F72204465BF
:101F88007669636520310044657669636520302091
:101F9800416464726573733A2000446576696365C9
:101FA800203120416464726573733A200044657679
:101FB8006963652030205265736F6C7574696F6E44
:101FC8003A20004465766963652031205265736F55
:101FD8006C7574696F6E3A20004465766963652094
:101FE800416464726573733A200052657175657354
:101FF80074696E672074656D706572617475726559
:0A200800732E2E2E00444F4E4500AB
:020000023000CC
:10E000000D9489F10D94B2F10D94B2F10D94B2F129
:10E010000D94B2F10D94B2F10D94B2F10D94B2F1F0
:10E020000D94B2F10D94B2F10D94B2F10D94B2F1E0
:10E030000D94B2F10D94B2F10D94B2F10D94B2F1D0
:10E040000D94B2F10D94B2F10D94B2F10D94B2F1C0
:10E050000D94B2F10D94B2F10D94B2F10D94B2F1B0
:10E060000D94B2F10D94B2F10D94B2F10D94B2F1A0
:10E070000D94B2F10D94B2F10D94B2F10D94B2F190
:10E080000D94B2F10D94B2F10D94B2F10D94B2F180
:10E090000D94B2F10D94B2F10D94B2F10D94B2F170
:10E0A0000D94B2F10D94B2F10D94B2F10D94B2F160
:10E0B0000D94B2F10D94B2F10D94B2F10D94B2F150
:10E0C0000D94B2F10D94B2F10D94B2F10D94B2F140
:10E0D0000D94B2F10D94B2F10D94B2F10D94B2F130
:10E0E0000D94B2F141546D656761323536300041AF
:10E0F000726475696E6F206578706C6F72657220DE
:10E1000073746B3530305632206279204D4C530099
:10E11000426F6F746C6F616465723E004875683F52
:10E1200000436F6D70696C6564206F6E203D200048
:10E130004350552054797065202020203D20005FF9
:10E140005F4156525F415243485F5F3D2000415658
:10E1500052204C696243205665723D20004743437C
:10E160002056657273696F6E203D20004350552024
:10E1700049442020202020203D20004C6F7720663D
:10E18000757365202020203D20004869676820665F
:10E190007573652020203D200045787420667573D6
:10E1A00065202020203D20004C6F636B2066757336
:10E1B000652020203D20004D617220203720323024
:10E1C000313300312E362E3800342E332E350056A2
:10E1D00023202020414444522020206F7020636F70
:10E1E00064652020202020696E73747275637469E1
:10E1F0006F6E2061646472202020496E74657272B3
:10E20000757074006E6F20766563746F7200726A49
:10E210006D702020006A6D70200057686174207056
:10E220006F72743A00506F7274206E6F7420737541
:10E2300070706F72746564004D7573742062652030
:10E2400061206C6574746572002000577269747483
:10E25000696E672045450052656164696E672045B7
:10E26000450045452065727220636E743D00504F35
:10E27000525400303D5A65726F2061646472003FF1
:10E280003D43505520737461747300403D454550C3
:10E29000524F4D207465737400423D426C696E6B41
:10E2A000204C454400453D44756D70204545505215
:10E2B0004F4D00463D44756D7020464C415348001B
:10E2C000483D48656C70004C3D4C69737420492F83
:10E2D0004F20506F72747300513D51756974005234
:10E2E0003D44756D702052414D00563D73686F7707
:10E2F00020696E7465727275707420566563746FF0
:10E30000727300593D506F727420626C696E6B00BD
:10E310002A0011241FBECFEFD1E2DEBFCDBF01E046
:10E320000CBF12E0A0E0B2E0EEE1FDEF03E00BBFB6
:10E3300002C007900D92A030B107D9F712E0A0E01B
:10E34000B2E001C01D92AE30B107E1F70F9460F367
:10E350000D948DFE01E20EBF0FEF0DBF11241FBE05
:10E360000D9460F30D9400F020E030E040ED57E0B4
:10E3700005C0FA013197F1F72F5F3F4F2817390792
:10E38000C0F308959C01260F311DC901A0E0B0E043
:10E390002F5F3F4FABBFFC018791882361F08093D3
:10E3A000C6008091C00086FFFCCF8091C0008064D1
:10E3B0008093C000EACF08958DE08093C6008091DD
:10E3C000C00086FFFCCF8091C00080648093C000B5
:10E3D0008AE08093C6008091C00086FFFCCF8091C8
:10E3E000C00080648093C00008950F94C2F10F9420
:10E3F000DCF10895FC019081992359F09093C600B7
:10E400008091C00086FFFCCF8091C0008064809323
:10E41000C0003196992379F70895282F982F929567
:10E420009F70892F805D8A3308F0895F8093C600D2
:10E430008091C00086FFFCCF8091C00080648093F3
:10E44000C000822F8F70982F905D9A3308F0995FEB
:10E450009093C6008091C00086FFFCCF8091C000E1
:10E4600080648093C00008959C01FB01853691056E
:10E470001CF46330710594F0C90164E670E00F94F8
:10E480002EFE605D7F4F6093C6008091C00086FFC6
:10E49000FCCF8091C00080648093C0002B30310598
:10E4A00014F43297B4F0C90164E670E00F942EFEC4
:10E4B0006AE070E00F942EFE605D7F4F6093C600AF
:10E4C0008091C00086FFFCCF8091C0008064809363
:10E4D000C000C9016AE070E00F942EFEC0968093E0
:10E4E000C6008091C00086FFFCCF8091C000806490
:10E4F0008093C00008951F93182F8EE692EE60E07F
:10E500000F94C2F11093C6008091C00086FFFCCF2B
:10E510008091C00080648093C0000F94DCF11F9153
:10E5200008952F923F924F925F926F927F928F92B7
:10E530009F92AF92BF92CF92DF92EF92FF920F9392
:10E540001F93DF93CF93CDB7DEB762970FB6F894E2
:10E55000DEBF0FBECDBF382E622ECA01DB015C01CB
:10E560006D01772420E2222E2E010894411C511CBB
:10E570008BC081E0A81680E0B80681E0C80680E084
:10E58000D80628F0C601AA27BB270F940DF2BB2797
:10E59000AD2D9C2D8B2D0F940DF28A2D0F940DF225
:10E5A0002092C6008091C00086FFFCCF8091C00001
:10E5B00080648093C0009DE29093C6008091C0006B
:10E5C00086FFFCCF8091C00080648093C0002092C1
:10E5D000C6008091C00086FFFCCF8091C00080649F
:10E5E0008093C00019828601750188249924A1E0D6
:10E5F0003A1651F03A1620F0B2E03B1661F409C029
:10E600000BBFF701779007C0C7010F9477FE782EF4
:10E6100002C0F7017080872D0F940DF22092C60082
:10E620008091C00086FFFCCF8091C0008064809301
:10E63000C000872D8052F401EF70F0708F3520F408
:10E64000E40DF51D708204C0E40DF51D8EE280839B
:10E650000894E11CF11C011D111D0894811C911CE2
:10E6600090E18916910409F0C2CF80E190E0A0E02A
:10E67000B0E0A80EB91ECA1EDB1E198AC2010F9493
:10E68000FAF10F94DCF16A94662009F072CF629679
:10E690000FB6F894DEBF0FBECDBFCF91DF911F91B3
:10E6A0000F91FF90EF90DF90CF90BF90AF909F9031
:10E6B0008F907F906F905F904F903F902F90089534
:10E6C0002F923F924F925F926F927F928F929F9282
:10E6D000AF92BF92CF92DF92EF92FF920F931F9370
:10E6E000DF93CF93CDB7DEB7CD53D1400FB6F894BB
:10E6F000DEBF0FBECDBF01E20EBF0FEF0DBF94B75F
:10E70000F894A89514BE80916000886180936000A1
:10E7100010926000789493FF05C0E0910002F091A0
:10E7200001021995279A2F9A8091C00082608093E8
:10E73000C00080E18093C40088E18093C1000000A4
:10E74000EE24FF24870144E0A42EB12CCC24DD2448
:10E7500024C0C5010197F1F70894E11CF11C011DCB
:10E76000111D21E2E2162EE4F20620E0020720E06D
:10E77000120718F031E0C32ED12CC801B70127ECE5
:10E780003BE140E050E00F9441FE611571058105C9
:10E79000910519F485B1805885B98091C00087FD35
:10E7A00003C0C114D104A9F2A6014F5F5F4FC25E3E
:10E7B000DE4F59834883CE51D140C25EDE4F8881FF
:10E7C0009981CE51D140019711F00D9410FEC05D9A
:10E7D000DE4F19821882C053D14060E0C15DDE4F28
:10E7E0001882CF52D14088249924C35DDE4F19820C
:10E7F0001882CD52D140C05EDE4F188219821A8233
:10E800001B82C052D140CE5CDE4F188219821A8220
:10E810001B82C253D140EE24FF2487010BBFF701B6
:10E8200007911691C45CDE4F19830883CC53D14005
:10E830000D940BFEC25EDE4F28813981CE51D1404E
:10E840002130310509F52091C600C25EDE4F1982E4
:10E850001882CE51D14022C02F5F3F4F4F4F5F4FA4
:10E86000213082E138078AE7480780E0580780F0C6
:10E87000C45CDE4FE881F981CC53D140EF5FFF4F9C
:10E8800019F0EE27FF27099420E030E040E050E047
:10E890008091C00087FFE0CF2091C600C35DDE4FAE
:10E8A00048815981CD52D1404F5F5F4FC35DDE4FEC
:10E8B00059834883CD52D140213209F063C64A3092
:10E8C000510508F05FC60894811C911C53E0851621
:10E8D000910409F059C600E010E018C081E280936D
:10E8E000C6008091C00086FFFCCF8091C00080648C
:10E8F0008093C0002F5F3F4F2931310579F70F9486
:10E90000DCF10F5F1F4F0530110519F020E030E0FA
:10E91000E5CF10920A0210920B0210920C02109294
:10E920000D02109206021092070210920802109235
:10E930000902109202021092030210920402109235
:10E9400005028FEE90EE60E00F94F5F180E191EE1C
:10E9500060E00F94C2F18091C00087FFFCCF9091DE
:10E96000C600903608F09F759032B8F09093C600BC
:10E970008091C00086FFFCCF8091C00080648093AE
:10E98000C000A0E2A093C6008091C00086FFFCCF2B
:10E990008091C00080648093C000983409F4D7C18E
:10E9A0009934B8F4923409F459C1933458F490333B
:10E9B00019F1903308F4E3C59F33A1F1903409F0C5
:10E9C000DEC5BDC0953409F470C1963409F0D7C5D1
:10E9D00098C1923509F42BC2933538F49C3409F46C
:10E9E000F5C1913509F0CBC518C2963509F445C279
:10E9F000993509F0C4C567C483E792EE62E00F94CD
:10EA0000F5F110920602109207021092080210927D
:10EA1000090210920A0210920B0210920C0210923C
:10EA20000D0213C18FE792EE62E00F94F5F18FEEC5
:10EA300090EE60E00F94F5F181E291EE60E00F94CA
:10EA4000C2F187EB91EE60E00F94F5F180E391EE77
:10EA500060E00F94C2F184EE90EE60E00F94F5F167
:10EA60008FE391EE60E00F94C2F186E090E061E008
:10EA700070E00F9434F20F94DCF18DE591EE60E0DC
:10EA80000F94C2F189EC91EE60E00F94F5F18EE401
:10EA900091EE60E00F94C2F183EC91EE60E00F9490
:10EAA000F5F18CE691EE60E00F94C2F18EE10F94E7
:10EAB0000DF288E90F940DF281E00F940DF20F949E
:10EAC000DCF18BE791EE60E00F94C2F119E0E0E039
:10EAD000F0E010935700E4918E2F0F940DF20F94F5
:10EAE000DCF18AE891EE60E00F94C2F1E3E0F0E03F
:10EAF00010935700E4918E2F0F940DF20F94DCF1D8
:10EB000089E991EE60E00F94C2F1E2E0F0E0109349
:10EB10005700E4918E2F0F940DF20F94DCF188EAE8
:10EB200091EE60E00F94C2F1E1E0F0E01093570045
:10EB30001491812F0F940DF20F94DCF107CF8BE825
:10EB400092EE62E00F94F5F18BE492EE60E00F94A8
:10EB5000F5F10F94DCF100E010E019C0C8016F2D51
:10EB60000F947FFEFF2031F489E492EE60E00F9471
:10EB7000C2F10BC0F092C6008091C00086FFFCCFAE
:10EB80008091C00080648093C0000F5F1F4FC80158
:10EB900081519F41A0E0B0E0ABBFFC01F790BAE229
:10EBA000FB1621F0E2E000301E07C1F60F94DCF105
:10EBB0000F94DCF187E592EE60E00F94F5F10F948D
:10EBC000DCF1CC24DD2400E010E01EC0C8010F946D
:10EBD00077FEF82E882331F489E492EE60E00F94FA
:10EBE000C2F10BC08093C6008091C00086FFFCCFAD
:10EBF0008091C00080648093C000FE1419F00894D6
:10EC0000C11CD11C0F5F1F4FC80181519F41A0E063
:10EC1000B0E0ABBFFC01E790FAE2EF1621F022E092
:10EC20000030120799F60F94DCF10F94DCF182E6C4
:10EC300092EE60E00F94C2F1C60161E070E00F94C3
:10EC400034F20F94DCF10F94DCF110920202109276
:10EC50000302109204021092050278CE89E992EE26
:10EC600062E00F94F5F1279A2F9A16C02F9880E052
:10EC700090E0E0EDF7E03197F1F7019684369105E9
:10EC8000C1F72F9A80E090E0E0EDF7E03197F1F7DF
:10EC9000019684369105C1F78091C00087FFE6CFC9
:10ECA0008091C00087FFFCCF64C485EA92EE62E0E9
:10ECB0000F94F5F140910202509103026091040219
:10ECC0007091050281E020E10F9491F2809102029F
:10ECD00090910302A0910402B091050280509F4FD1
:10ECE000AF4FBF4F8093020290930302A0930402A0
:10ECF000B093050280509041A040B04008F426CE69
:10ED0000A4CF83EB92EE62E00F94F5F140910602FE
:10ED100050910702609108027091090280E020E1A1
:10ED20000F9491F28091060290910702A09108023F
:10ED3000B091090280509F4FAF4FBF4F80930602A2
:10ED400090930702A0930802B0930902FFCD80ECD4
:10ED500092EE62E00F94F5F183E792EE60E00F949B
:10ED6000F5F18FE792EE60E00F94F5F18BE892EE0B
:10ED700060E00F94F5F189E992EE60E00F94F5F10F
:10ED800085EA92EE60E00F94F5F183EB92EE60E09D
:10ED90000F94F5F180EC92EE60E00F94F5F187ECC2
:10EDA00092EE60E00F94F5F188ED92EE60E00F9442
:10EDB000F5F18FED92EE60E00F94F5F18AEE92EEB0
:10EDC00060E00F94F5F183E093EEBDCD87EC92EE19
:10EDD00062E00F94F5F181E40F947BF282E40F94EA
:10EDE0007BF283E40F947BF284E40F947BF285E45E
:10EDF0000F947BF286E40F947BF287E40F947BF20E
:10EE000088E40F947BF28AE40F947BF28BE40F94F6
:10EE10007BF28CE40F947BF299CD88ED92EE62E068
:10EE20000F94F5F1772473948824992409C48FED05
:10EE300092EE62E00F94F5F140910A0250910B02BC
:10EE400060910C0270910D0282E020E10F9491F22A
:10EE500080910A0290910B02A0910C02B0910D02D8
:10EE600080509F4FAF4FBF4F80930A0290930B0289
:10EE7000A0930C02B0930D0269CD8AEE92EE62E08F
:10EE80000F94F5F184EE90EE60E00F94F5F18FECC5
:10EE900091EE60E00F94F5F1662477244301CC5D98
:10EEA000DE4F19821882C452D140D401C301B695F5
:10EEB000A79597958795CA5DDE4F88839983AA8326
:10EEC000BB83C652D140CC5DDE4FA881B981C4520C
:10EED000D1401196CC5DDE4FB983A883C452D14096
:10EEE000CD0162E070E00F9434F2B0E2B093C6005E
:10EEF0008091C00086FFFCCF8091C0008064809329
:10EF0000C000EDE2E093C6008091C00086FFFCCF18
:10EF10008091C00080648093C000F0E2F093C6004E
:10EF20008091C00086FFFCCF8091C00080648093F8
:10EF3000C000CA5DDE4FE880F9800A811B81C6529D
:10EF4000D140BB27A12F902F8F2D0F940DF2CA5DBA
:10EF5000DE4F8881C652D1400F940DF2B0E2FB2EF5
:10EF6000F092C6008091C00086FFFCCF8091C00067
:10EF700080648093C0000DE30093C6008091C000C0
:10EF800086FFFCCF8091C00080648093C00010E2B7
:10EF90001093C6008091C00086FFFCCF8091C00016
:10EFA00080648093C0008BBEF3012791C65DDE4F65
:10EFB0002883CA52D140A22EBB24CC24DD2408943D
:10EFC000611C711C811C911C8BBEF3018791282E42
:10EFD0003324442455240894611C711C811C911C09
:10EFE0008BBEF3013791C55DDE4F3883CB52D140E4
:10EFF0000894611C711C811C911C8BBEF30147910C
:10F00000C45DDE4F4883CC52D140ADEFEA2EAFEF66
:10F01000FA2EAFEF0A2FAFEF1A2F6E0C7F1C801E57
:10F02000911E142D032DF22CEE24EA0CFB1C0C1D5A
:10F030001D1D0F940DF220E22093C6008091C000A8
:10F0400086FFFCCF8091C00080648093C000C65DC5
:10F05000DE4F8881CA52D1400F940DF230E23093D6
:10F06000C6008091C00086FFFCCF8091C000806404
:10F070008093C000C45DDE4F8881CC52D1400F9494
:10F080000DF240E24093C6008091C00086FFFCCFA5
:10F090008091C00080648093C000C55DDE4F888190
:10F0A000CB52D1400F940DF250E25093C6008091A4
:10F0B000C00086FFFCCF8091C00080648093C000B8
:10F0C0008FEFE8168FEFF80680E0080780E018075A
:10F0D00031F484E092EE60E00F94C2F1DFC0D80119
:10F0E000C7018070907CA070B0708050904CA040A0
:10F0F000B040D1F52FEF3FE340E050E0E222F322B1
:10F1000004231523CA5DDE4FA880B980CA80DB8046
:10F11000C652D140AE0CBF1CC01ED11EAA0CBB1CD7
:10F12000CC1CDD1C8EE092EE60E00F94C2F1BB2798
:10F13000A12F902F8F2D0F940DF28E2D0F940DF285
:10F1400030E23093C6008091C00086FFFCCF8091F2
:10F15000C00080648093C0004EE34093C60080915D
:10F16000C00086FFFCCF87C08EE09EEFA0E0B0E03D
:10F17000E822F9220A231B239CE0E91694E9F90608
:10F1800090E0090790E0190709F088C0C45DDE4FE0
:10F19000A881CC52D140EA2EFF2400E010E0102FCD
:10F1A0000F2DFE2CEE24C55DDE4FB881CB52D14031
:10F1B000EB0EF11C011D111DD601C501817090706F
:10F1C000A070B070DC0199278827E80EF91E0A1F8D
:10F1D0001B1F20EF30E040E050E0A222B322C42207
:10F1E000D52241E1AA0CBB1CCC1CDD1C4A95D1F7F1
:10F1F000EA0CFB1C0C1D1D1D81E090E0A0E0B0E0BE
:10F20000282239224A225B2235E1220C331C441C7D
:10F21000551C3A95D1F7E20CF31C041D151D57013E
:10F220006801AA0CBB1CCC1CDD1C85E192EE60E0E1
:10F230000F94C2F1C801AA27BB270F940DF2BB2778
:10F24000A12F902F8F2D0F940DF28E2D0F940DF274
:10F2500090E29093C6008091C00086FFFCCF809121
:10F26000C00080648093C000AEE3A093C60080918C
:10F27000C00086FFFCCF8091C00080648093C000F6
:10F28000C601AA27BB270F940DF2BB27AD2D9C2DDD
:10F290008B2D0F940DF28A2D0F940DF20F94DCF14B
:10F2A000CC5DDE4FE881F981C452D140F99709F471
:10F2B0004DCBF4E0EF2EF12C012D112D6E0C7F1CA7
:10F2C000801E911EF2CD83E093EE62E00F94F5F183
:10F2D0008AE192EE60E00F94C2F18091C00087FF56
:10F2E000FCCF1091C6001F751093C6008091C0001E
:10F2F00086FFFCCF8091C00080648093C0000F9493
:10F30000DCF1812F81548A3108F036C1163409F4BA
:10F3100095C0173490F4133409F44EC0143430F40B
:10F320001134F1F0123409F01DC130C0143409F465
:10F3300059C0153409F016C16BC01A3409F4C4C0A1
:10F340001B3438F4173409F48FC0183409F00AC19B
:10F35000A1C01B3409F4D2C01C3409F003C1E8C0B9
:10F360008FEF81B90DC082B1809582B980E090E0C5
:10F37000E0EDF7E03197F1F70196883C9105C1F790
:10F380008091C00087FFEFCF12B8EFC08FEF84B934
:10F390000DC085B1809585B980E090E0E0EDF7E0A3
:10F3A0003197F1F70196883C9105C1F78091C00033
:10F3B00087FFEFCF15B8D9C08FEF87B90DC088B1DF
:10F3C000809588B980E090E0E0EDF7E03197F1F7C3
:10F3D0000196883C9105C1F78091C00087FFEFCF6F
:10F3E00018B8C3C08FEF8AB90DC08BB180958BB9A7
:10F3F00080E090E0E0EDF7E03197F1F70196883C8E
:10F400009105C1F78091C00087FFEFCF1BB8ADC059
:10F410008FEF8DB90DC08EB180958EB980E090E0F0
:10F42000E0EDF7E03197F1F70196883C9105C1F7DF
:10F430008091C00087FFEFCF1EB897C08FEF80BBD1
:10F440000DC081B3809581BB80E090E0E0EDF7E0F6
:10F450003197F1F70196883C9105C1F78091C00082
:10F4600087FFEFCF11BA81C08FEF83BB0DC084B38C
:10F47000809584BB80E090E0E0EDF7E03197F1F714
:10F480000196883C9105C1F78091C00087FFEFCFBE
:10F4900014BA6BC08FEF809301010FC080910201FD
:10F4A00080958093020180E090E0E0EDF7E03197F5
:10F4B000F1F70196883C9105C1F78091C00087FF64
:10F4C000EDCF1092020151C08FEF809304010FC065
:10F4D0008091050180958093050180E090E0E0ED4A
:10F4E000F7E03197F1F70196883C9105C1F78091DB
:10F4F000C00087FFEDCF1092050137C08FEF8093DA
:10F5000007010FC08091080180958093080180E079
:10F5100090E0E0EDF7E03197F1F70196883C910536
:10F52000C1F78091C00087FFEDCF109208011DC088
:10F530008FEF80930A010FC080910B01809580931B
:10F540000B0180E090E0E0EDF7E03197F1F70196F4
:10F55000883C9105C1F78091C00087FFEDCF1092E4
:10F560000B0103C085E292EEEEC98091C00087FFD7
:10F57000FCCF8091C600EAC988E392EEE4C98CE131
:10F5800091EEE1C988249924933011F1943028F444
:10F59000913089F09230B8F408C0953061F195301F
:10F5A000F0F0963009F048C043C02B3109F042C951
:10F5B00091E06BE13FC96227C15DDE4F2883CF52E6
:10F5C000D14092E037C9B22FA0E0622793E032C960
:10F5D000822F90E0A82BB92B622794E02BC92E3004
:10F5E00009F039C3622795E0C05DDE4F19821882A9
:10F5F000C053D1401FC9E1E0F0E0EC0FFD1FC05D3A
:10F60000DE4F08811981C053D140E00FF11F2083E4
:10F610000F5F1F4FC05DDE4F19830883C053D14079
:10F6200062270A171B0709F005C9D80196E002C92D
:10F63000261709F010C303C0973009F0FBC87724E0
:10F640009981933109F412C19431C8F4963009F4C8
:10F65000D8C0973050F4923009F406C1933009F4C1
:10F660006DC0913009F059C253C0913109F477C08F
:10F67000923108F0BBC0903109F04FC2F5C098310B
:10F6800009F487C0993150F4953109F4EFC09531F0
:10F6900008F4C6C1963109F040C2C2C19A3109F4DA
:10F6A0006CC09A3108F491C09B3109F45BC09D3164
:10F6B00009F033C29D81903359F48F81882311F46E
:10F6C0009EE11CC0813011F091E018C098E916C08D
:10F6D000892F807591F0903539F4E0E0F0E089E011
:10F6E0008093570094910AC0983539F4E3E0F0E034
:10F6F00089E080935700949101C090E01A821B82A8
:10F700008D818C831D829E831F8227E030E009C299
:10F710001A8288E08B8381E48C8386E58D8382E581
:10F720008E8389E48F8383E5888780E589878FE5E9
:10F730008A8782E38B872BE030E0F3C18A818139AD
:10F7400041F0823941F0803911F48FE005C080E04A
:10F7500003C082E001C08AE01A828B8344C0772410
:10F76000739482C08D81882311F48EE12CC0813086
:10F7700011F081E028C088E926C01A82E1E0F0E0BB
:10F7800089E08093570084918B831C8224E030E0D1
:10F79000C8C18B81803589F48C81883039F4E2E0EE
:10F7A000F0E089E08093570084910DC0E0E0F0E044
:10F7B00089E080935700849106C0E3E0F0E089E09F
:10F7C0008093570084911A82DFCF8D81836C99E0FA
:10F7D000E1E0F0E0082E90935700E89507B600FCB2
:10F7E000FDCF1A821B8223E030E09BC180EC8A832C
:10F7F000CE5CDE4F188219821A821B82C253D1401E
:10F800008EC18A8190E0A0E0B0E0582F44273327D2
:10F8100022278B8190E0A0E0B0E0DC0199278827C7
:10F82000282B392B4A2B5B2B8D8190E0A0E0B0E098
:10F83000282B392B4A2B5B2B8C8190E0A0E0B0E089
:10F84000BA2FA92F982F8827282B392B4A2B5B2BCF
:10F85000220F331F441F551FC05EDE4F288339839C
:10F860004A835B83C052D1401A8259C13A81C95C34
:10F87000DE4F3883C753D140CA5CDE4F1882C6536F
:10F88000D1408B81C82EDD24CA5CDE4F488159816E
:10F89000C653D140C42AD52A933109F082C0CE5C28
:10F8A000DE4F88819981AA81BB81C253D1408050AB
:10F8B000904CA340B04030F583E0CE5CDE4FE88052
:10F8C000F9800A811B81C253D140F70100935B008C
:10F8D00080935700E89507B600FCFDCFCE5CDE4F65
:10F8E000088119812A813B81C253D14000501F4FAA
:10F8F0002F4F3F4FCE5CDE4F088319832A833B8313
:10F90000C253D140C05EDE4F488159816A817B81FC
:10F91000C052D140DE011B9631E08C9111962C91A2
:10F9200011971296C75CDE4F2883C953D140C85C3B
:10F93000DE4F1882C853D14090E0C85CDE4FE881AA
:10F94000F981C853D1408E2B9F2B0C01FA01609393
:10F950005B0030935700E89511244E5F5F4F6F4F67
:10F960007F4F0EEFE02E0FEFF02ECE0CDF1CC114F8
:10F97000D10499F685E0C05EDE4F088119812A81A5
:10F980003B81C052D140F80120935B008093570027
:10F99000E89507B600FCFDCF81E180935700E8951C
:10F9A00035C0C05EDE4F88819981AA81BB81C0527B
:10F9B000D140B695A795979587957C018601ABE0D8
:10F9C000AA2EB12CAC0EBD1E0BC0D5016D915D01F0
:10F9D000C7010F947FFE0894E11CF11C01501040F8
:10F9E0000115110591F7A60160E070E0440F551F65
:10F9F000661F771FC05EDE4FE880F9800A811B8199
:10FA0000C052D1404E0D5F1D601F711F1A82C05E33
:10FA1000DE4F488359836A837B83C052D1407FC0C5
:10FA2000FA80C55CDE4FF882CB53D140C65CDE4F16
:10FA30001882CA53D1408B81C82EDD24C65CDE4FAC
:10FA400008811981CA53D140C02AD12A1A828981DA
:10FA5000BE016D5F7F4F843121F59601C05EDE4FA0
:10FA6000E880F9800A811B81C052D1400BBFF701A9
:10FA700087919691DB018C9311969C936E5F7F4FDB
:10FA8000D801C7010296A11DB11DC05EDE4F88835B
:10FA90009983AA83BB83C052D14022503040F1F6F3
:10FAA00036C0C05EDE4F288139814A815B81C052F9
:10FAB000D1400894C108D108760100E010E0089414
:10FAC000C11CD11C0894E11CF11C011D111DE20E8A
:10FAD000F31E041F151F21BDBB27A52F942F832FB5
:10FAE00082BD2F5F3F4F4F4F5F4FF89A80B5DB01CC
:10FAF0008D93BD012E153F054007510761F7C05E8C
:10FB0000DE4F288339834A835B83C052D1409601FC
:10FB10002D5F3F4FFB01108204C080EC8A8322E0FE
:10FB200030E08BE18093C6008091C00086FFFCCF5F
:10FB30008091C00080648093C000C15DDE4FF88179
:10FB4000CF52D140F093C6008091C00086FFFCCF19
:10FB50008091C00080648093C000432F3093C60022
:10FB60008091C00086FFFCCF8091C00080648093AC
:10FB7000C000922F2093C6008091C00086FFFCCF6A
:10FB80008091C00080648093C0008EE08093C600A6
:10FB90008091C00086FFFCCF8091C000806480937C
:10FBA000C00065E1C15DDE4FE880CF52D1406E25D7
:10FBB00069276427FE01319610C090819093C6009A
:10FBC0008091C00086FFFCCF31968091C000806498
:10FBD0008093C0006927215030402115310569F715
:10FBE0006093C6008091C00086FFFCCF8091C0006A
:10FBF00080648093C00085B1805885B9772081F4F6
:10FC0000C15DDE4F0881CF52D1400F5FC15DDE4F35
:10FC10000883CF52D14090E0A0E0B0E00D941AF4F8
:10FC200027982F9880E090E020ED37E0F901319798
:10FC3000F1F7019684369105C9F700008091C00064
:10FC40008D7F8093C00081E180935700E895EE2777
:10FC5000FF270994FFCF90E00D941AF497FB092E2B
:10FC600007260AD077FD04D02ED006D000201AF443
:10FC7000709561957F4F0895F6F7909581959F4F08
:10FC80000895A1E21A2EAA1BBB1BFD010DC0AA1FDD
:10FC9000BB1FEE1FFF1FA217B307E407F50720F0F5
:10FCA000A21BB30BE40BF50B661F771F881F991F70
:10FCB0001A9469F760957095809590959B01AC01B9
:10FCC000BD01CF010895AA1BBB1B51E107C0AA1FAC
:10FCD000BB1FA617B70710F0A61BB70B881F991FED
:10FCE0005A95A9F780959095BC01CD010895F99991
:10FCF000FECF92BD81BDF89A992780B50895262F31
:10FD0000F999FECF1FBA92BD81BD20BD0FB6F89400
:0EFD1000FA9AF99A0FBE01960895F894FFCF63
:040000033000E000E9
:00000001FF