:10000000EFC000001EC100001CC100001AC10000AA
:1000100018C1000016C1000014C1000012C1000088
:1000200010C100000EC100000CC100000AC1000098
:1000300008C1000006C1000004C1000002C10000A8
:1000400000C10000FEC00000FCC00000FAC00000BB
:10005000F8C00000F6C00000F4C000000C94890C49
:10006000F0C000000C944D0C0C94230CEAC000006E
:10007000E8C00000E6C00000E4C00000E2C00000EC
:10008000E0C00000DEC00000DCC00000DAC00000FC
:10009000D8C00000D6C00000D4C00000D2C000000C
:1000A000D0C00000CEC00000CCC00000CAC000001C
:1000B000C8C00000C6C00000C4C00000C2C000002C
:1000C000C0C00000BEC00000BCC00000BAC000003C
:1000D000B8C00000B6C00000B4C00000B2C000004C
:1000E000B0C00000000020002300260029002C00E2
:1000F0002F00320000010000030106010901005E2B
:10010000BCE2613FDD83C29C7E20A3FD1F41009DB8
:1001100023BE46DB65F88C11AF32CA57E974000084
:100120002200250028002B002E003100340002019F
:100130000000050108010B01000021002400270038
:100140002A002D00300033000101000004010701E6
:100150000A0105050505070508080808020202024C
:100160000A0A080804040404010101010101010153
:100170000303030303030303040707070C0C0C0C1E
:100180000C0C0C0C02020202060606060606060607
:100190000B0B0B0B0B0B0B0B010210202008081094
:1001A00020401020408002010201080402010102E7
:1001B00004081020408080402010080402018004C0
:1001C000020180402010080402010804020101021B
:1001D0000408102040800102040810204080E40C34
:1001E00011241FBECFEFD1E2DEBFCDBF00E00CBFB8
:1001F00013E0A0E0B2E0E8EAFEE100E00BBF02C0DD
:1002000007900D92AA36B107D9F724E0AAE6B3E029
:1002100001C01D92A234B207E1F710E0C0EFD0E0B8
:1002200000E006C021970109802FFE010E944A0FBD
:10023000CF3ED10780E00807A9F70E941C0C0C9460
:10024000520FDECE0895DC01ED91FC910190F0811A
:10025000E02D19950895CF92DF92EF92FF920F93C0
:100260001F93CF93DF938C01DB01D0E0C0E07A01D4
:1002700081E0E81AF108452BA1F0F8018081918115
:10028000FC01208131816D01FFEFCF1ADF0A6C91F3
:10029000C801F9011995892B21F02196A701D601F2
:1002A000E6CFCE01DF91CF911F910F91FF90EF909C
:1002B000DF90CF90089508956FEF7FEF81E090E099
:1002C00001C00895019709F008956F3F7F4FE1F74E
:1002D000E5EAF3E01382128288EE93E0A0E0B0E05A
:1002E00084839583A683B78384E092E0918380839F
:1002F00085EC90E09587848784EC90E097878687EB
:1003000080EC90E0918B808B81EC90E0938B828BE2
:1003100082EC90E0958B848B86EC90E0978B868BBB
:10032000118E128E138E148ECFCFFC01938D848D7F
:10033000981720F4891B990B019708952FE330E05B
:10034000291B3109820F932F911D0895FC01918D76
:10035000828D981761F0A28DAE0FBF2FB11D5D96F3
:100360008C91928D9F5F9F73928F90E008958FEF95
:100370009FEF0895FC01918D828D981731F0828D49
:10038000E80FF11D858D90E008958FEF9FEF0895A0
:10039000FC01218D30E0205C3F4F828DA901481B7C
:1003A0005109CA018F739927089585EA93E0F0DF18
:1003B00021E0892B09F420E0822F0895CF92DF926B
:1003C000EF92FF921F93CF93DF93EC016A017B01C1
:1003D000122F60E079E08DE390E0A70196010E9482
:1003E000140F215031094109510956954795379508
:1003F0002795E889F98982E08083C11481EED806C7
:10040000E104F10421F0211580E1380798F0E88932
:10041000F989108260E874E88EE190E0A701960106
:100420000E94140F215031094109510956954795F1
:1004300037952795EC85FD853083EE85FF852083F4
:10044000188EEC89FD891083EA89FB89808180619F
:100450008083EA89FB89808188608083EA89FB89BF
:10046000808180688083EA89FB8980818F7D808399
:10047000DF91CF911F91FF90EF90DF90CF90089583
:10048000FC01A48DA80FB92FB11DA35ABF4F2C9109
:10049000848D90E001968F739078848FA689B789B8
:1004A0002C93A089B1898C91837080648C93938DF7
:1004B000848D981308950288F389E02D80818F7DC3
:1004C0008083F8CF0F931F93CF93DF93EC0181E0EC
:1004D000888F9B8D8C8D9817A9F0062F8B8D90E0BF
:1004E00001968F739078182F8C8D81131DC00FB6D5
:1004F00007FCFACFE889F989808185FFF5CFCE0125
:10050000BFDFF2CFE889F989808185FFE6CF9FB709
:10051000F894EE89FF896083E889F9898081837086
:10052000806480839FBF10C0EB8DEC0FFD2FF11D09
:10053000E35AFF4F00839FB7F8941B8FEA89FB892A
:100540008081806280839FBF81E090E0DF91CF91C6
:100550001F910F910895CF93DF93EC01888D811146
:1005600004C00DC00FB607FE0DC0EA89FB8980816B
:1005700085FDF8CFA889B9898C9186FFF3CFDF91EB
:10058000CF910895808185FFF0CFE889F989808136
:1005900085FFEBCFCE0174DFE8CF80E090E0892BC0
:1005A00019F003DF811125C080E090E0892B41F034
:1005B00080E090E0892B21F00E94000081111CC096
:1005C00080E090E0892B41F080E090E0892B21F0E1
:1005D0000E940000811113C080E090E0892B41F05F
:1005E00080E090E0892B21F00E94000081110AC078
:1005F00008950E940000D8CF0E940000E1CF0E9421
:100600000000EACF0E940000F3CFCF93DF9390E089
:10061000FC01E856FE4F24918E5A9E4FFC018491B6
:10062000882319F190E0880F991FFC01E85CFE4FC8
:10063000A591B491FC01E25EFE4FC591D491662371
:1006400049F06230A9F08FB7F894EC91E22BEC936B
:100650008FBF0BC09FB7F8948C91E22FE0958E234B
:100660008C938881E823E8839FBFDF91CF91089521
:100670009FB7F8943C91822F809583238C93E881D7
:10068000E22BE8839FBFF1CF789484B5826084BD6C
:1006900084B5816084BD85B5826085BD85B5816086
:1006A00085BDEEE6F0E0808181608083E1E8F0E0E6
:1006B0001082808182608083808181608083E0E815
:1006C000F0E0808181608083E1EBF0E080818460F4
:1006D0008083E0EBF0E0808181608083E1E9F0E0FD
:1006E000808182608083808181608083E0E9F0E0A6
:1006F000808181608083E1EAF0E080818260808394
:10070000808181608083E0EAF0E080818160808385
:10071000E1E2F1E08081826080838081816080837A
:10072000E0E2F1E0808181608083EAE7F0E08081AF
:100730008460808380818260808380818160808307
:100740008081806880831092C10008958230910575
:1007500038F0880F991F880F991F05970197F1F7B7
:1007600008953FB7F8948091A1039091A203A091BE
:10077000A303B091A40326B5A89B05C02F3F19F091
:100780000196A11DB11D3FBFBA2FA92F982F882711
:10079000BC01CD01620F711D811D911D660F771F78
:1007A000881F991F660F771F881F991F08958F92C2
:1007B0009F92AF92BF92CF92DF92EF92FF926B0126
:1007C0007C01CFDF4B015C011AC021E0C21AD108C5
:1007D000E108F10888EE880E83E0981EA11CB11C88
:1007E000C114D104E104F10451F0BBDF68197909A7
:1007F0008A099B09683E73408105910530F7C11451
:10080000D104E104F10461F7FF90EF90DF90CF9005
:10081000BF90AF909F908F9008952FB7F8946091FC
:100820009D0370919E0380919F039091A0032FBF21
:100830000895DC01E0E04FEF460F6623B1F09D0123
:100840002F5F3F4F8C918E27E82FEF70F0E0E25042
:10085000FF4F949182958F70E82FF0E0E25FFE4F9A
:10086000E491E927642FD901E6CF8E2F0895DC01AA
:100870001B961C921B971D961C921D971C961C92F2
:100880001C9727E030E0FD01E20FF31F13822115D2
:10089000310519F021503109F6CF08950F931F93B8
:1008A000CF93DF93FC011081C181D281F8948981BB
:1008B000812B89838A81012F009580238A8383E09D
:1008C00090E044DF8981802389838AE090E03EDFE5
:1008D0008881812359F4C0E0789485E390E036DF85
:1008E0008C2FDF91CF911F910F910895C1E0F4CF2C
:1008F0000F931F93CF93DF938C01D0E0C1E001C031
:10090000CC0FCC2331F0C801C9DF8823C9F3DC2B1D
:10091000F7CF8D2FDF91CF911F910F9108951F93E6
:10092000CF93DF93FC011081C181D28160FD17C09C
:10093000F8949A81812F809589238A838981812BDC
:10094000898381E490E002DF8A81182B1A837894EE
:1009500085E090E0FBDEDF91CF911F910895F89440
:100960009A81812F809589238A838981812B89832C
:100970008AE090E0EBDE8A81182B1A83789487E373
:1009800090E0E4DEE8CFFF920F931F93CF93DF93C5
:100990008C01D62FF42EC1E004C060E0C801BFDF97
:1009A000CC0FCC2329F08C2F8D23B9F361E0F6CF47
:1009B000F11015C0F894D8011196ED91FC911297A1
:1009C00091818C918095892381831196ED91FC9181
:1009D000129792818C918095892382837894DF91FC
:1009E000CF911F910F91FF90089540E06CECCBCF19
:1009F0000895EF92FF920F931F93CF938C017B0189
:100A000040E065E5C0DFC0E0C83048F4F701EC0F16
:100A1000F11D40E06081C801B6DFCF5FF5CFCF9117
:100A20001F910F91FF90EF900895FF920F931F93E6
:100A3000CF93DF93FC01D08101811281F894F801FA
:100A40008181FD2EF0948F2181837894CDE7C15070
:100A500021F182E090E07ADEF80180818D23B9F304
:100A6000F89482818F21828381818D2B8183789478
:100A700080EE91E06BDEF894F8018181F822F1823A
:100A800086E490E063DEF8018081D823C1E009F0BC
:100A9000C0E078948AE991E059DE8C2FDF91CF9104
:100AA0001F910F91FF900895BF92CF92DF92EF9226
:100AB000FF920F931F93CF93DF93EC016B01042FF1
:100AC0001D85112379F01B861D861C8610E0812F61
:100AD000DF91CF911F910F91FF90EF90DF90CF901A
:100AE000BF900895A2DF882361F0002371F040E0F9
:100AF00060EFCE0148DF01E0F12CB12CEE24E3944D
:100B00004CC01B861D861C86E2CF40E06CEECE01F9
:100B10003ADFF1CF813009F048C080E48E1598F6B5
:100B2000BB86B11002C081E08D878B81882359F28A
:100B300090E080E0883091050CF04CC0F601E80FA1
:100B4000F91FDE01A80FB91F13962C91208301967F
:100B5000F1CF8B85E81648F4FE01EF0DF11D83817E
:100B6000802311E029F410E003C011E08E1110E0A1
:100B700011111DC088E08E1518F0EC86BE2C17C030
:100B8000BE2C15C0FE01EF0DF11D8381802B8383E8
:100B900018C087E08F1508F4C0CFCE017FDE182F74
:100BA000CE017CDE113009F4B5CF181791F2113067
:100BB00049F3FE01EF0DF11D8381902F909589235C
:100BC0008383612FCE01ABDEE394000F11F7F39422
:100BD00001E0DFCF11E07BCF1F93CF93DF93EC01D8
:100BE000162F60E0812F11DD612F70E0FB01E856C8
:100BF000FE4FE491E883FB01EE5AFE4FE491F0E0F2
:100C0000EE0FFF1FEC51FF4F859194919A838983DA
:100C1000CE012DDEDF91CF911F910895FC01738BE2
:100C2000628B0895813824EE920764F0BC01072E90
:100C3000000C880B990BCAD720E030E040E05CE361
:100C40000C949A0E60E070E08EEF92EC089526E628
:100C500036E646EE5FE30E949A0E20E030E040E088
:100C600052E4B6C6FC0180810895FA01818190E0CA
:100C7000982F8827990F990F990F208130E0220F24
:100C8000331F220F331F220F331F822B932BDB01C5
:100C90002C91203109F00895880F991F880F991F12
:100CA000880F991F9C012078678170E08681AB01D5
:100CB000481B5109CA019695982F882797958795C3
:100CC0000E94010FCB01820F931F4097E4CF6A303F
:100CD00069F06B3041F0693019F08EEE92E00895C2
:100CE0008EE590E0089587E791E008958CEB90E021
:100CF0000895FC0186819781D1DD91E0813009F072
:100D000090E0892F08958F929F92AF92BF92CF92D9
:100D1000DF92EF92FF920F931F93CF93DF93EC013B
:100D2000D6DF8C018B81882319F08881882391F08C
:100D3000B801110F880B990B3ADDDF91CF911F910C
:100D40000F91FF90EF90DF90CF90BF90AF909F906A
:100D50008F90089562DD6B017C01CE01CADF8111A5
:100D6000ECCF5BDD4801012E000CAA08BB08681916
:100D700079098A099B096C157D058E059F0568F325
:100D8000DCCFCF93DF93EC018E819F814EDE8E818D
:100D90009F812BDE488164E48E819F81F4DD8A810E
:100DA000811103C0DF91CF9108956981CE01ABDF3E
:100DB000F9CF0F931F93CF93DF93EC018B018E81BB
:100DC0009F8133DEB8018E819F8113DE40E064EBAA
:100DD0008E819F81D8DD8E819F8160DD81110AC067
:100DE00011E08E819F8121DE812FDF91CF911F91B4
:100DF0000F91089510E0F5CFEF92FF920F931F939C
:100E0000CF93DF93EC018B017A018E819F810DDE00
:100E1000B8018E819F81EDDD40E06EE48E819F817F
:100E2000B2DD40E0F70162818E819F81ACDD40E060
:100E3000F70163818E819F81A6DDF8018081803179
:100E4000F1F48E819F81F1DDB8018E819F81D1DD2A
:100E5000488168E48E819F8196DD64E170E080E0E6
:100E600090E0A5DC8881811111C08E819F81DDDD3C
:100E7000DF91CF911F910F91FF90EF90089540E087
:100E8000F70164818E819F817EDDDBCF6AE070E0B7
:100E900080E090E08CDCE9CFCF92DF92EF92FF927E
:100EA0000F931F93CF937C018B016A01FC01868114
:100EB0009781BBDD81110AC090E0892FCF911F91EE
:100EC0000F91FF90EF90DF90CF900895B801F70158
:100ED000868197818EDD40E06EEBF70186819781F8
:100EE00052DDC0E0C93058F486010C0F111DF70126
:100EF00086819781FDDCF8018083CF5FF3CFF70116
:100F00008681978192DD91E08130B9F290E0D5CF72
:100F10000F931F93CF938A01BFDFC82F811105C0A4
:100F20008C2FCF911F910F91089568E0C80181DC4B
:100F3000F80190858917A1F3C0E0F2CFEF92FF92FC
:100F40000F931F93CF93DF9300D000D000D0CDB785
:100F5000DEB78C017B01AE014F5F5F4FD9DF882385
:100F600099F0AE014F5F5F4FB701C8017EDE299651
:100F70000FB6F894DEBF0FBECDBFDF91CF911F91AA
:100F80000F91FF90EF90089580E894EEF0CFD6DFB8
:100F900049CE0895CF93DF9300D000D000D0CDB7D5
:100FA000DEB7FB0120812031C1F0AE014F5F5F4F02
:100FB000AFDF8823A1F08D818F3369F030F08F355A
:100FC000C1F08F3731F48CE00BC08F3111F489E020
:100FD00007C080E005C08AE003C08CE001C080E06B
:100FE00029960FB6F894DEBF0FBECDBFDF91CF912B
:100FF00008958BE0F5CFCF93DF93EB0167E0CE014F
:1010000018DC2F8191E0821390E0892FDF91CF913E
:101010000895EF92FF920F931F93CF93DF938C016C
:101020007B01D42FFC018681978121DCC0E001C0C7
:10103000CF5FDC1780F041E0B701F801868197812E
:1010400033DD882349F0CD13F3CFB701C801D3DFD7
:10105000882371F301C080E0DF91CF911F910F9140
:10106000FF90EF900895BF92CF92DF92EF92FF92A0
:101070000F931F93CF93DF93CDB7DEB761970FB672
:10108000F894DEBF0FBECDBF7C016B01B22E49309C
:1010900028F0142F4D3018F01CE001C019E0B60103
:1010A000C70178DF811709F457C0AE014F5F5F4F6A
:1010B000B601C7012DDF082F882309F44EC0F601C1
:1010C0008081803109F449C01B30F1F01C3029F0D7
:1010D0001A30E9F08FE18D8302C08FE78D83AE0176
:1010E0004F5F5F4FB601C70187DEF7018181181797
:1010F00008F0812FF7018183B11040C0181768F5FF
:101100001183D12CC12C10C08FE58D83E8CF8FE3E4
:101110008D83E5CFBE01665F7F4FC7013BDFF701DF
:101120008183FFEFCF1ADF0AF70184818C151D043C
:10113000A1F09CF04C2DBE01665F7F4FC70169DFB7
:10114000F7011181BE01665F7F4FC70123DF811761
:1011500008F7F7018181E3CF01E0802F61960FB698
:10116000F894DEBF0FBECDBFDF91CF911F910F91DD
:10117000FF90EF90DF90CF90BF9008950B2DEDCFB3
:10118000FC0184810895FC017783668314821582B3
:10119000108289E0818381E0828383830895FB014B
:1011A0008081883259F030F4803141F0823231F060
:1011B00080E008958B3311F08234D1F781E00895F7
:1011C000FF920F931F93CF93DF9300D000D01F9215
:1011D0001F92CDB7DEB78C01FC018681978147DB7A
:1011E000F8011482158241E0BE016F5F7F4FF80164
:1011F0008681978159DC8823C1F1BE016F5F7F4FE3
:10120000C801F9DE882379F3F80180818823E1F0B1
:10121000F801F180BE016F5F7F4FC801BBDE8F1503
:10122000F0F4F8018181F801818384818F5F8483E8
:10123000BE016F5F7F4FC801B2DF8823A1F2F801C2
:1012400085818F5F8583CFCFBE016F5F7F4FC801E0
:10125000B0DD8823E9F281E0F8018083D9CFBE01B7
:101260006F5F7F4FC80196DEDECF28960FB6F894E9
:10127000DEBF0FBECDBFDF91CF911F910F91FF90C9
:101280000895CF93DF93EC017EDF70E060E0CE0144
:10129000C5DCDF91CF9108956FEF7FEF81E090E0A3
:1012A00001C00895019709F008956F3F7F4FE1F75E
:1012B00064E08EE893E090DC6EE873E08AE793E008
:1012C000E0DFF2CFDF92EF92FF920F931F93CF9365
:1012D000DF93CDB7DEB7A1970FB6F894DEBF0FBE90
:1012E000CDBF7C01CB01BA01D22E19A221E02D1570
:1012F00020F48E010F5D1F4F0EC00F2EFAE0DF2E7F
:10130000F02DF7CFE95CD801EE938D0161157105E1
:101310008105910571F02D2D30E050E040E084D53D
:10132000E62F622F732F842F952FEA305CF7E05D54
:10133000EACF1097F9F0FD0101900020E9F731970D
:10134000AF014A1B5B0BD701ED91FC910280F38149
:10135000E02DB801C7011995A1960FB6F894DEBF2C
:101360000FBECDBFDF91CF911F910F91FF90EF90F6
:10137000DF90089590E080E0EFCF2115310549F42A
:10138000DC01ED91FC910190F081E02D642F199525
:10139000089598CF08959A01AB0170E060E0EDCF19
:1013A00008959A01462F50E070E060E0E6CF08957E
:1013B000DC01ED91FC910280F381E02D42E050E0F0
:1013C00062E172E0199508956115710581F0FB01E4
:1013D00001900020E9F73197AF01461B570BDC0164
:1013E000ED91FC910280F381E02D1995089590E034
:1013F00080E008954F925F926F927F92AF92BF927A
:10140000CF92DF92EF92FF920F931F93CF93DF93D0
:1014100000D01F921F92CDB7DEB75C016A017B013D
:101420002D83AB019601CB01B601E7D481114BC0EE
:1014300026013701E89477F821E029832FEF3FEF69
:101440004FE75FE7C301B201D8D481110AC02FEF83
:101450003FEF4FE75FE7C301B2011ED318160CF44C
:10146000198289818823A9F12FEF3FEF4FE75FE4CD
:10147000C701B6015BD418160CF445C02FEF3FEF3F
:101480004FE75FECC701B60107D388230CF441C0D6
:1014900020E030E0A901C701B601FED288230CF498
:1014A0003EC0712C612C10E060E070E080E09FE3B2
:1014B0002D81121708F03DC020E030E040E251E4F9
:1014C000EFD21F5FF5CF65E172E0C5017DDF8C01D2
:1014D00005C069E172E0C50177DF8C01C8010F909A
:1014E0000F900F900F900F90DF91CF911F910F9160
:1014F000FF90EF90DF90CF90BF90AF907F906F9074
:101500005F904F9008956DE172E0C5015DDF8C0141
:10151000E5CF6DE172E0C50157DF8C01DFCF6DE2F1
:10152000C5010E9423013C01F7FAF094F7F8F0940A
:10153000BACF9B01AC01C701B6014AD26B017C0155
:1015400017D369837A838B839C833ED39B01AC0141
:10155000C701B6013CD26B017C012AE030E0498131
:101560005A816B817C81C50108DF8301080F191F37
:101570008D81811126C02D81215029838D81882361
:1015800009F4ACCF20E030E040E251E4C701B601FD
:10159000D1D32B013C01ECD26B014AE050E0C501F4
:1015A000FADE080F191FB60190E080E00DD39B0111
:1015B000AC01C301B2010BD26B017C0129812D83E7
:1015C000DACF6EE2C5010E942301080F191FD3CFA5
:1015D00011CF08950F931F93CF93DF93EC01F4DEA7
:1015E0008C01CE01E5DE800F911FDF91CF911F911D
:1015F0000F910895CF92DF92EF92FF92BC018AE79C
:1016000093E0C5DC6B017C0161E272E085EA93E066
:10161000DBDE22E030E0B701A60185EA93E0D8DF07
:101620006AE272E085EA93E0CFDEC701B6010FDB24
:10163000AB01BC0122E030E085EA93E0C9DFFF9016
:10164000EF90DF90CF900895EF92FF920F931F934A
:10165000CF937C01C0E008C040E150E0F801608118
:1016600085EA93E09EDECF5FC83068F487010C0FF7
:10167000111DF8018081803178F761EC72E085EA14
:1016800093E0A2DEE9CFCF911F910F91FF90EF90F1
:10169000089526E040E052EC61E070E085EA93E0D6
:1016A0000E94DE0164E372E085EA93E093DF8AE75B
:1016B00093E086DD6FE572E085EA93E085DE63E71F
:1016C00072E085EA93E080DE8AE793E059DD4AE044
:1016D00050E0682F85EA93E064DE6AE772E085EA0D
:1016E00093E078DF64E872E085EA93E06DDE8AE7F4
:1016F00093E0B8DA882309F462C068E972E085EA09
:1017000093E068DF40E062E773E08AE793E081DC22
:10171000882309F45AC041E06AE673E08AE793E05F
:1017200078DC882309F457C067EE72E085EA93E01D
:101730004BDE82E793E088DF85EA93E039DE6AEFEB
:1017400072E085EA93E040DE8AE693E07DDF85EA99
:1017500093E02EDE20E049E062E773E08AE793E061
:1017600082DC20E049E06AE673E08AE793E07BDC14
:101770006DE073E085EA93E027DE62E773E08AE7D5
:1017800093E008DC4AE050E0682F85EA93E009DE48
:1017900085EA93E00DDE63E273E085EA93E014DE10
:1017A0006AE673E08AE793E0F5DB4AE050E0682FF1
:1017B00085EA93E0F6DD85EA93E0FACD08956BE9DA
:1017C00072E085EA93E006DF9DCF6FE972E085EA7B
:1017D00093E000DFA0CF63EC72E085EA93E0FADEED
:1017E000A3CFCF93DF93EC0169E373E085EA93E045
:1017F000EBDDCE0129DF68E272E085EA93E0E4DD0B
:10180000CE01F8DE85EA93E0D3DDDF91CF91089534
:101810006AE473E085EA93E0D7DD8AE793E0B1DA22
:1018200065E673E085EA93E0D5DE82E793E0D9DFF1
:101830008AE693E0D6CF08950E9444032ADFE8DFCA
:101840000E94CD02FCCF1F920F920FB60F9211246F
:101850000BB60F922F933F934F935F936F937F93AA
:101860008F939F93AF93BF93EF93FF9385EA93E09A
:101870000E944002FF91EF91BF91AF919F918F9194
:101880007F916F915F914F913F912F910F900BBE80
:101890000F900FBE0F901F9018951F920F920FB6CA
:1018A0000F9211240BB60F922F938F939F93AF93A8
:1018B000BF93EF93FF93E091B503F091B60380815E
:1018C00082FD14C0E5EAF3E0A689B7892C91818DE9
:1018D0008F5F8F73928D891771F0DF01E18DF0E0DA
:1018E000EB55FC4F258F59968C9305C0E091BB03B7
:1018F000F091BC038081FF91EF91BF91AF919F91D7
:101900008F912F910F900BBE0F900FBE0F901F90D5
:1019100018951F920F920FB60F9211240F931F93D9
:101920002F933F934F935F936F937F938F939F93E7
:10193000AF93BF9300919D0310919E0320919F034D
:101940003091A00390919C03B901A8014F5F5F4FB4
:101950006F4F7F4F83E0890F8D3740F086E8890F06
:10196000B901A8014E5F5F4F6F4F7F4F80939C037B
:1019700040939D0350939E0360939F037093A00335
:101980008091A1039091A203A091A303B091A4031D
:101990000196A11DB11D8093A1039093A203A09372
:1019A000A303B093A403BF91AF919F918F917F91B7
:1019B0006F915F914F913F912F911F910F910F90D8
:1019C0000FBE0F901F9018950E945C0165CC505877
:1019D000BB27AA270ED070C161D130F066D120F0AC
:1019E00031F49F3F11F41EF456C10EF4E095E7FB6D
:1019F0004CC1E92F72D180F3BA17620773078407CD
:101A0000950718F071F49EF58AC10EF4E0950B2E3F
:101A1000BA2FA02D0B01B90190010C01CA01A00140
:101A20001124FF27591B99F0593F50F4503E68F19B
:101A30001A16F040A22F232F342F4427585FF3CFDC
:101A4000469537952795A795F0405395C9F77EF4AD
:101A50001F16BA0B620B730B840BBAF09150A1F0F6
:101A6000FF0FBB1F661F771F881FC2F70EC0BA0F7C
:101A7000621F731F841F48F4879577956795B79504
:101A8000F7959E3F08F0B3CF9395880F08F09927FC
:101A9000EE0F979587950895D4D008F481E00895C6
:101AA0000CD00AC102D140F0F9D030F021F45F3FF0
:101AB00019F0EBC0511134C1EEC00FD198F3992346
:101AC000C9F35523B1F3951B550BBB27AA27621702
:101AD0007307840738F09F5F5F4F220F331F441F47
:101AE000AA1FA9F333D00E2E3AF0E0E830D091507F
:101AF0005040E695001CCAF729D0FE2F27D0660F6C
:101B0000771F881FBB1F261737074807AB07B0E8AA
:101B100009F0BB0B802DBF01FF2793585F4F2AF0C0
:101B20009E3F510568F0B1C0FBC05F3FECF3983EAB
:101B3000DCF3869577956795B795F7959F5FC9F71D
:101B4000880F911D9695879597F90895E1E0660FA6
:101B5000771F881FBB1F621773078407BA0720F01F
:101B6000621B730B840BBA0BEE1F88F7E095089588
:101B7000BCD088F09F5790F0B92F9927B751A0F0AB
:101B8000D1F0660F771F881F991F1AF0BA95C9F711
:101B900012C0B13081F0C3D0B1E00895C0C0672F4A
:101BA000782F8827B85F39F0B93FCCF386957795C1
:101BB0006795B395D9F73EF49095809570956195AA
:101BC0007F4F8F4F9F4F0895E89409C097FB3EF4D5
:101BD00090958095709561957F4F8F4F9F4F99237A
:101BE000A9F0F92F96E9BB279395F69587957795F8
:101BF0006795B795F111F8CFFAF4BB0F11F460FFB8
:101C00001BC06F5F7F4F8F4F9F4F16C0882311F00F
:101C100096E911C0772321F09EE8872F762F05C023
:101C2000662371F096E8862F70E060E02AF09A95BE
:101C3000660F771F881FDAF7880F9695879597F9B3
:101C40000895990F0008550FAA0BE0E8FEEF16164D
:101C50001706E807F907C0F012161306E407F507A0
:101C600098F0621B730B840B950B39F40A2661F014
:101C7000232B242B252B21F408950A2609F4A140B7
:101C8000A6958FEF811D811D089597F99F6780E8C4
:101C900070E060E008959FEF80EC089500240A94BE
:101CA0001616170618060906089500240A94121637
:101CB0001306140605060895092E0394000C11F46A
:101CC000882352F0BB0F40F4BF2B11F460FF04C017
:101CD0006F5F7F4F8F4F9F4F089557FD9058440F70
:101CE000551F59F05F3F71F04795880F97FB991F7B
:101CF00061F09F3F79F08795089512161306140638
:101D0000551FF2CF4695F1DF08C0161617061806C4
:101D1000991FF1CF86957105610508940895E8949F
:101D2000BB2766277727CB0197F908958ADF08F448
:101D30008FEF08950BD0C0CFB1DF28F0B6DF18F0D9
:101D4000952309F0A2CFA7CF1124EACFC6DFA0F3D5
:101D5000959FD1F3950F50E0551F629FF001729F40
:101D6000BB27F00DB11D639FAA27F00DB11DAA1F5F
:101D7000649F6627B00DA11D661F829F2227B00DAC
:101D8000A11D621F739FB00DA11D621F839FA00D37
:101D9000611D221F749F3327A00D611D231F849F87
:101DA000600D211D822F762F6A2F11249F575040DE
:101DB0008AF0E1F088234AF0EE0FFF1FBB1F661F79
:101DC000771F881F91505040A9F79E3F510570F032
:101DD0005CCFA6CF5F3FECF3983EDCF3869577951A
:101DE0006795B795F795E7959F5FC1F7FE2B880F2D
:101DF000911D9695879597F9089523DF880B990B88
:101E0000089597FB072E16F4009406D077FD08D0AE
:101E10002DD007FC05D03EF4909581959F4F0895F5
:101E2000709561957F4F0895A1E21A2EAA1BBB1BE6
:101E3000FD010DC0AA1FBB1FEE1FFF1FA217B30796
:101E4000E407F50720F0A21BB30BE40BF50B661FAC
:101E5000771F881F991F1A9469F760957095809570
:101E600090959B01AC01BD01CF010895AA1BBB1B3E
:101E700051E107C0AA1FBB1FA617B70710F0A61B8A
:101E8000B70B881F991F5A95A9F780959095BC01AB
:101E9000CD010895EE0FFF1F881F8BBF0790F691AD
:081EA000E02D1994F894FFCF26
:101EA8000000000062022B019501AB02C801A601E7
:101EB800BA010D0A006E616E00696E66006F766683
:101EC8000054656D7020433A20002054656D7020E1
:101ED800463A200044616C6C61732054656D7065EE
:101EE80072617475726520494320436F6E74726F16
:101EF8006C204C6962726172792044656D6F004C88
:101F08006F636174696E6720646576696365732EB3
:101F18002E2E00466F756E64200020646576696316
:101F280065732E00506172617369746520706F77F4
:101F380065722069733A20004F4E004F464600559F
:101F48006E61626C6520746F2066696E64206164DE
:101F5800647265737320666F722044657669636581
:101F6800203000556E61626C6520746F2066696E62
:101F780064206164647265737320666F72204465BF
:101F88007669636520310044657669636520302091
:101F9800416464726573733A2000446576696365C9
:101FA800203120416464726573733A200044657679
:101FB8006963652030205265736F6C7574696F6E44
:101FC8003A20004465766963652031205265736F55
:101FD8006C7574696F6E3A20004465766963652094
:101FE800416464726573733A200052657175657354
:101FF80074696E672074656D706572617475726559
:0A200800732E2E2E00444F4E4500AB
:00000001FF
